{"abi":[{"type":"constructor","inputs":[],"stateMutability":"nonpayable"},{"type":"function","name":"approve","inputs":[{"name":"to","type":"address","internalType":"address"},{"name":"tokenId","type":"uint256","internalType":"uint256"}],"outputs":[],"stateMutability":"nonpayable"},{"type":"function","name":"balanceOf","inputs":[{"name":"owner","type":"address","internalType":"address"}],"outputs":[{"name":"","type":"uint256","internalType":"uint256"}],"stateMutability":"view"},{"type":"function","name":"getApproved","inputs":[{"name":"tokenId","type":"uint256","internalType":"uint256"}],"outputs":[{"name":"","type":"address","internalType":"address"}],"stateMutability":"view"},{"type":"function","name":"getMetadata","inputs":[{"name":"agentId","type":"uint256","internalType":"uint256"},{"name":"key","type":"string","internalType":"string"}],"outputs":[{"name":"","type":"bytes","internalType":"bytes"}],"stateMutability":"view"},{"type":"function","name":"isApprovedForAll","inputs":[{"name":"owner","type":"address","internalType":"address"},{"name":"operator","type":"address","internalType":"address"}],"outputs":[{"name":"","type":"bool","internalType":"bool"}],"stateMutability":"view"},{"type":"function","name":"name","inputs":[],"outputs":[{"name":"","type":"string","internalType":"string"}],"stateMutability":"view"},{"type":"function","name":"owner","inputs":[],"outputs":[{"name":"","type":"address","internalType":"address"}],"stateMutability":"view"},{"type":"function","name":"ownerOf","inputs":[{"name":"tokenId","type":"uint256","internalType":"uint256"}],"outputs":[{"name":"","type":"address","internalType":"address"}],"stateMutability":"view"},{"type":"function","name":"register","inputs":[],"outputs":[{"name":"agentId","type":"uint256","internalType":"uint256"}],"stateMutability":"nonpayable"},{"type":"function","name":"register","inputs":[{"name":"tokenUri","type":"string","internalType":"string"},{"name":"metadata","type":"tuple[]","internalType":"struct IdentityRegistry.MetadataEntry[]","components":[{"name":"key","type":"string","internalType":"string"},{"name":"value","type":"bytes","internalType":"bytes"}]}],"outputs":[{"name":"agentId","type":"uint256","internalType":"uint256"}],"stateMutability":"nonpayable"},{"type":"function","name":"register","inputs":[{"name":"tokenUri","type":"string","internalType":"string"}],"outputs":[{"name":"agentId","type":"uint256","internalType":"uint256"}],"stateMutability":"nonpayable"},{"type":"function","name":"renounceOwnership","inputs":[],"outputs":[],"stateMutability":"nonpayable"},{"type":"function","name":"safeTransferFrom","inputs":[{"name":"from","type":"address","internalType":"address"},{"name":"to","type":"address","internalType":"address"},{"name":"tokenId","type":"uint256","internalType":"uint256"}],"outputs":[],"stateMutability":"nonpayable"},{"type":"function","name":"safeTransferFrom","inputs":[{"name":"from","type":"address","internalType":"address"},{"name":"to","type":"address","internalType":"address"},{"name":"tokenId","type":"uint256","internalType":"uint256"},{"name":"data","type":"bytes","internalType":"bytes"}],"outputs":[],"stateMutability":"nonpayable"},{"type":"function","name":"setAgentUri","inputs":[{"name":"agentId","type":"uint256","internalType":"uint256"},{"name":"newUri","type":"string","internalType":"string"}],"outputs":[],"stateMutability":"nonpayable"},{"type":"function","name":"setApprovalForAll","inputs":[{"name":"operator","type":"address","internalType":"address"},{"name":"approved","type":"bool","internalType":"bool"}],"outputs":[],"stateMutability":"nonpayable"},{"type":"function","name":"setMetadata","inputs":[{"name":"agentId","type":"uint256","internalType":"uint256"},{"name":"key","type":"string","internalType":"string"},{"name":"value","type":"bytes","internalType":"bytes"}],"outputs":[],"stateMutability":"nonpayable"},{"type":"function","name":"supportsInterface","inputs":[{"name":"interfaceId","type":"bytes4","internalType":"bytes4"}],"outputs":[{"name":"","type":"bool","internalType":"bool"}],"stateMutability":"view"},{"type":"function","name":"symbol","inputs":[],"outputs":[{"name":"","type":"string","internalType":"string"}],"stateMutability":"view"},{"type":"function","name":"tokenURI","inputs":[{"name":"tokenId","type":"uint256","internalType":"uint256"}],"outputs":[{"name":"","type":"string","internalType":"string"}],"stateMutability":"view"},{"type":"function","name":"transferFrom","inputs":[{"name":"from","type":"address","internalType":"address"},{"name":"to","type":"address","internalType":"address"},{"name":"tokenId","type":"uint256","internalType":"uint256"}],"outputs":[],"stateMutability":"nonpayable"},{"type":"function","name":"transferOwnership","inputs":[{"name":"newOwner","type":"address","internalType":"address"}],"outputs":[],"stateMutability":"nonpayable"},{"type":"event","name":"Approval","inputs":[{"name":"owner","type":"address","indexed":true,"internalType":"address"},{"name":"approved","type":"address","indexed":true,"internalType":"address"},{"name":"tokenId","type":"uint256","indexed":true,"internalType":"uint256"}],"anonymous":false},{"type":"event","name":"ApprovalForAll","inputs":[{"name":"owner","type":"address","indexed":true,"internalType":"address"},{"name":"operator","type":"address","indexed":true,"internalType":"address"},{"name":"approved","type":"bool","indexed":false,"internalType":"bool"}],"anonymous":false},{"type":"event","name":"BatchMetadataUpdate","inputs":[{"name":"_fromTokenId","type":"uint256","indexed":false,"internalType":"uint256"},{"name":"_toTokenId","type":"uint256","indexed":false,"internalType":"uint256"}],"anonymous":false},{"type":"event","name":"MetadataSet","inputs":[{"name":"agentId","type":"uint256","indexed":true,"internalType":"uint256"},{"name":"indexedKey","type":"string","indexed":true,"internalType":"string"},{"name":"key","type":"string","indexed":false,"internalType":"string"},{"name":"value","type":"bytes","indexed":false,"internalType":"bytes"}],"anonymous":false},{"type":"event","name":"MetadataUpdate","inputs":[{"name":"_tokenId","type":"uint256","indexed":false,"internalType":"uint256"}],"anonymous":false},{"type":"event","name":"OwnershipTransferred","inputs":[{"name":"previousOwner","type":"address","indexed":true,"internalType":"address"},{"name":"newOwner","type":"address","indexed":true,"internalType":"address"}],"anonymous":false},{"type":"event","name":"Registered","inputs":[{"name":"agentId","type":"uint256","indexed":true,"internalType":"uint256"},{"name":"tokenURI","type":"string","indexed":false,"internalType":"string"},{"name":"owner","type":"address","indexed":true,"internalType":"address"}],"anonymous":false},{"type":"event","name":"Transfer","inputs":[{"name":"from","type":"address","indexed":true,"internalType":"address"},{"name":"to","type":"address","indexed":true,"internalType":"address"},{"name":"tokenId","type":"uint256","indexed":true,"internalType":"uint256"}],"anonymous":false},{"type":"event","name":"UriUpdated","inputs":[{"name":"agentId","type":"uint256","indexed":true,"internalType":"uint256"},{"name":"newUri","type":"string","indexed":false,"internalType":"string"},{"name":"updatedBy","type":"address","indexed":true,"internalType":"address"}],"anonymous":false},{"type":"error","name":"ERC721IncorrectOwner","inputs":[{"name":"sender","type":"address","internalType":"address"},{"name":"tokenId","type":"uint256","internalType":"uint256"},{"name":"owner","type":"address","internalType":"address"}]},{"type":"error","name":"ERC721InsufficientApproval","inputs":[{"name":"operator","type":"address","internalType":"address"},{"name":"tokenId","type":"uint256","internalType":"uint256"}]},{"type":"error","name":"ERC721InvalidApprover","inputs":[{"name":"approver","type":"address","internalType":"address"}]},{"type":"error","name":"ERC721InvalidOperator","inputs":[{"name":"operator","type":"address","internalType":"address"}]},{"type":"error","name":"ERC721InvalidOwner","inputs":[{"name":"owner","type":"address","internalType":"address"}]},{"type":"error","name":"ERC721InvalidReceiver","inputs":[{"name":"receiver","type":"address","internalType":"address"}]},{"type":"error","name":"ERC721InvalidSender","inputs":[{"name":"sender","type":"address","internalType":"address"}]},{"type":"error","name":"ERC721NonexistentToken","inputs":[{"name":"tokenId","type":"uint256","internalType":"uint256"}]},{"type":"error","name":"OwnableInvalidOwner","inputs":[{"name":"owner","type":"address","internalType":"address"}]},{"type":"error","name":"OwnableUnauthorizedAccount","inputs":[{"name":"account","type":"address","internalType":"address"}]}],"bytecode":{"object":"0x60803462000348576001600160401b03906040908082018381118282101762000266578252600d81526020926c4167656e744964656e7469747960981b848301528251938385018581108382111762000266578452600385526210525160ea1b8186015282519082821162000266575f54916001948584811c941680156200033d575b8385101462000247578190601f94858111620002ea575b50839085831160011462000286575f926200027a575b50505f19600383901b1c191690851b175f555b8551928311620002665783548481811c911680156200025b575b828210146200024757828111620001ff575b50809183116001146200019a5750819293945f926200018e575b50505f19600383901b1c191690821b1790555b3315620001785760078054336001600160a01b0319821681179092559151916001600160a01b03167f8be0079c531659141344cd1fd0a4f28419497f9722a3daafe3b4186f6b6457e05f80a35f60085561197c90816200034d8239f35b51631e4fbdf760e01b81525f6004820152602490fd5b015190505f8062000108565b90601f19831695845f52825f20925f905b888210620001e75750508385969710620001ce575b505050811b0190556200011b565b01515f1960f88460031b161c191690555f8080620001c0565b808785968294968601518155019501930190620001ab565b845f52815f208380860160051c8201928487106200023d575b0160051c019085905b82811062000231575050620000ee565b5f815501859062000221565b9250819262000218565b634e487b7160e01b5f52602260045260245ffd5b90607f1690620000dc565b634e487b7160e01b5f52604160045260245ffd5b015190505f80620000af565b90879350601f198316915f8052855f20925f5b87828210620002d35750508411620002ba575b505050811b015f55620000c2565b01515f1960f88460031b161c191690555f8080620002ac565b8385015186558b9790950194938401930162000299565b9091505f8052835f208580850160051c82019286861062000333575b918991869594930160051c01915b8281106200032457505062000099565b5f815585945089910162000314565b9250819262000306565b93607f169362000082565b5f80fdfe608060409080825260049081361015610016575f80fd5b5f3560e01c90816301ffc9a714610ed75750806306fdde0314610e2a578063081812fc14610e0b578063095ea7b314610d2f5780631aa3a00814610ccc57806323b872dd14610cb557806342842e0e14610c87578063466648da14610a895780635a753149146109725780636352211e1461094257806370a08231146108ed578063715018a6146108925780638da5cb5b1461086a5780638ea422861461054857806395d89b4114610465578063a22cb465146103c9578063b88d4fde1461036d578063c87b56dd14610311578063cb4799f214610283578063e985e9c514610235578063f2c298be1461019e5763f2fde38b14610112575f80fd5b3461019a57602036600319011261019a5761012b610fa1565b906101346117d1565b6001600160a01b03918216928315610184575050600754826001600160601b0360a01b821617600755167f8be0079c531659141344cd1fd0a4f28419497f9722a3daafe3b4186f6b6457e05f80a3005b905f6024925191631e4fbdf760e01b8352820152fd5b5f80fd5b50903461019a57602036600319011261019a57813567ffffffffffffffff811161019a576020926101d1913691016110a6565b90600854916101df836111b1565b6008556101ec833361149c565b6101f681846116ba565b827fca52e62c367d81bb2e328eb795f7c7ba24afb478408a26c0e201d155c449bc4a83518681528061022c339589830190610f7c565b0390a351908152f35b823461019a578060031936011261019a57602090610251610fa1565b610259610fb7565b9060018060a01b038091165f5260058452825f2091165f52825260ff815f20541690519015158152f35b503461019a578160031936011261019a576024359167ffffffffffffffff831161019a576102fb6102e060206102f4946102c361030d97369083016110a6565b90355f5260098252845f2082865194838680955193849201610f5b565b8201908152030190208251938480926110fc565b0383611032565b51918291602083526020830190610f7c565b0390f35b503461019a57602036600319011261019a5761030d916102f4913561033581611462565b505f52600660205261034e815f208251938480926110fc565b5f815161035a81611002565b5251918291602083526020830190610f7c565b503461019a57608036600319011261019a57610387610fa1565b61038f610fb7565b6044359060643567ffffffffffffffff811161019a576103c7946103b5913691016110a6565b926103c18383836111d3565b336117fd565b005b50903461019a578060031936011261019a576103e3610fa1565b906024359182151580930361019a576001600160a01b03169283156104505750335f526005602052805f20835f52602052805f2060ff1981541660ff8416179055519081527f17307eab39ab6107e8899845ad3d59bd9653f200f220920489ca2b5937696c3160203392a3005b836024925191630b61174360e31b8352820152fd5b823461019a575f36600319011261019a578051905f90826001926001549361048c856110c4565b90818452602095866001821691825f146105265750506001146104cb575b505061030d92916104bc910385611032565b51928284938452830190610f7c565b9085925060015f527fb10e2d527612073b26eecdfd717e6a320cf44b4afac2b0732d9fcbe2b7fa0cf6915f925b82841061050e57505050820101816104bc6104aa565b8054848a0186015288955087949093019281016104f8565b60ff19168682015292151560051b850190920192508391506104bc90506104aa565b50903461019a578060031936011261019a5767ffffffffffffffff90823582811161019a5761057a90369085016110a6565b60249283359481861161019a573660238701121561019a578581013591808311610858578260051b966020978651946105b58a830187611032565b855287898601918301019136831161019a57888101915b8383106107d15750505050600854936105e4856111b1565b6008556105f1853361149c565b6105fb81866116ba565b847fca52e62c367d81bb2e328eb795f7c7ba24afb478408a26c0e201d155c449bc4a87518a81528061063133958d830190610f7c565b0390a35f5b83518110156107c8578761064a828661143a565b510151855f526009895261067a89885f20610665858961143a565b515190828b5194838680955193849201610f5b565b820190815203019020908051908482116107b6576106a28261069c85546110c4565b856113a6565b8a90601f831160011461074d5791806106d59260019695945f92610742575b50508160011b915f199060031b1c19161790565b90555b6106e2818661143a565b5151867f2c149ed548c6d2993cd73efe187df6eccabe4538091b33adbd25fafdb8a1468b610710848961143a565b51519261072a8d610721878c61143a565b510151916113f5565b936107398c5192839283611415565b0390a301610636565b015190505f806106c1565b5f8481528c8120929190601f198516908e5b82821061079e5750509084600197969594939210610786575b505050831b830190556106d8565b01515f1960f88460031b161c191690555f8080610778565b8060018697829497870151815501960194019061075f565b89604187634e487b7160e01b5f52525ffd5b87858751908152f35b823585811161019a57820189602319823603011261019a578951918a830183811088821117610846578b528b82013587811161019a57610816908d36918501016110a6565b835260448201359287841161019a576108378e94938e8695369201016110a6565b838201528152019201916105cc565b8c60418a634e487b7160e01b5f52525ffd5b85604183634e487b7160e01b5f52525ffd5b823461019a575f36600319011261019a5760075490516001600160a01b039091168152602090f35b3461019a575f36600319011261019a576108aa6117d1565b600780546001600160a01b031981169091555f906001600160a01b03167f8be0079c531659141344cd1fd0a4f28419497f9722a3daafe3b4186f6b6457e08280a3005b50903461019a57602036600319011261019a576001600160a01b03610910610fa1565b16801561092c57602092505f5260038252805f20549051908152f35b81516322718ad960e21b81525f81850152602490fd5b50903461019a57602036600319011261019a5761096160209235611462565b90516001600160a01b039091168152f35b50903461019a578060031936011261019a5781359060243567ffffffffffffffff9384821161019a573660238301121561019a5781013593841161019a576024810190602485369201011161019a577fb41beef75d9f8d55b985319b459e96f82453580af381391f1ad531eb8f8b5a3a91610a146109ef85611462565b6001600160a01b0390811633811491908215610a68575b508115610a54575b50611369565b610a28610a22368785611070565b856116ba565b8481519260208452816020850152828401375f8286018201523394601f01601f191682018290030190a3005b9050610a5f8661118d565b1633145f610a0e565b9091505f526005602052825f20335f5260205260ff835f205416905f610a06565b503461019a57606036600319011261019a5780359067ffffffffffffffff9060243582811161019a57610abf90369083016110a6565b9060443583811161019a57610ad790369083016110a6565b92845f52602060028152610b0a60018060a01b0380895f20541690813314918215610c69575b508115610c5e5750611369565b855f5260098152865f2081885180928751610b288184868c01610f5b565b820190815203019020928551928311610c4b5750610b4a8261069c85546110c4565b80601f8311600114610bc55750817f2c149ed548c6d2993cd73efe187df6eccabe4538091b33adbd25fafdb8a1468b95949392610b9b925f91610bba575b508160011b915f199060031b1c19161790565b90555b610bb5610baa826113f5565b955192839283611415565b0390a3005b90508501515f610b88565b90601f198316845f52825f20925f905b828210610c335750509183917f2c149ed548c6d2993cd73efe187df6eccabe4538091b33adbd25fafdb8a1468b9796959460019410610c1b575b5050811b019055610b9e565b8601515f1960f88460031b161c191690555f80610c0f565b80600185968294968c01518155019501930190610bd5565b604190634e487b7160e01b5f525260245ffd5b9050610a5f8861118d565b5f908152600585528a812033825285528a81205460ff169250610afd565b823461019a576103c790610c9a36610fcd565b91925192610ca784611002565b5f84526103c18383836111d3565b3461019a576103c7610cc636610fcd565b916111d3565b823461019a575f36600319011261019a57600854602091610cec826111b1565b600855610cf9823361149c565b80518381525f84820152827fca52e62c367d81bb2e328eb795f7c7ba24afb478408a26c0e201d155c449bc4a833393a351908152f35b50903461019a578060031936011261019a57610d49610fa1565b91602435610d5681611462565b33151580610df8575b80610dd1575b610dbb576001600160a01b039485169482918691167f8c5be1e5ebec7d5bd14f71427d1e84f3dd0314c0f7b2291e5b200ac8c7c3b9255f80a45f526020525f20906001600160601b0360a01b8254161790555f80f35b835163a9fbf51f60e01b81523381850152602490fd5b5060018060a01b0381165f526005602052835f20335f5260205260ff845f20541615610d65565b506001600160a01b038116331415610d5f565b50903461019a57602036600319011261019a576109616020923561118d565b823461019a575f36600319011261019a578051905f90825f5492610e4d846110c4565b808352602094600190866001821691825f14610526575050600114610e7e57505061030d92916104bc910385611032565b5f80805286935091907f290decd9548b62a8d60345a988386fc84ba6bc95484008f6362f93160ef3e5635b828410610ebf57505050820101816104bc6104aa565b8054848a018601528895508794909301928101610ea9565b823461019a57602036600319011261019a57359063ffffffff60e01b821680920361019a57602091632483248360e11b8114908115610f18575b5015158152f35b6380ac58cd60e01b811491508115610f4a575b8115610f39575b5083610f11565b6301ffc9a760e01b14905083610f32565b635b5e139f60e01b81149150610f2b565b5f5b838110610f6c5750505f910152565b8181015183820152602001610f5d565b90602091610f9581518092818552858086019101610f5b565b601f01601f1916010190565b600435906001600160a01b038216820361019a57565b602435906001600160a01b038216820361019a57565b606090600319011261019a576001600160a01b0390600435828116810361019a5791602435908116810361019a579060443590565b6020810190811067ffffffffffffffff82111761101e57604052565b634e487b7160e01b5f52604160045260245ffd5b90601f8019910116810190811067ffffffffffffffff82111761101e57604052565b67ffffffffffffffff811161101e57601f01601f191660200190565b92919261107c82611054565b9161108a6040519384611032565b82948184528183011161019a578281602093845f960137010152565b9080601f8301121561019a578160206110c193359101611070565b90565b90600182811c921680156110f2575b60208310146110de57565b634e487b7160e01b5f52602260045260245ffd5b91607f16916110d3565b80545f939261110a826110c4565b918282526020936001916001811690815f1461116e5750600114611130575b5050505050565b90939495505f92919252835f2092845f945b83861061115a57505050500101905f80808080611129565b805485870183015294019385908201611142565b60ff19168685015250505090151560051b010191505f80808080611129565b61119681611462565b505f908152600460205260409020546001600160a01b031690565b5f1981146111bf5760010190565b634e487b7160e01b5f52601160045260245ffd5b6001600160a01b03918216929091831561135157815f52602092600284528260409583875f20541695331515806112bf575b506002908761128e575b825f5260038152885f2060018154019055835f5252865f20816001600160601b0360a01b825416179055857fddf252ad1be2c89b69c2b068fc378daa952ba7f163c4a11628f55a4df523b3ef5f80a4169283830361126d5750505050565b6064945051926364283d7b60e01b8452600484015260248301526044820152fd5b5f84815260046020526040812080546001600160a01b03191690558881526003825289902080545f1901905561120f565b9192509080611310575b156112d7579084915f611205565b8685876112f4576024915190637e27328960e01b82526004820152fd5b604491519063177e802f60e01b82523360048301526024820152fd5b503386148015611335575b806112c95750845f52600481523384885f205416146112c9565b50855f5260058152865f20335f52815260ff875f20541661131b565b604051633250574960e11b81525f6004820152602490fd5b1561137057565b60405162461bcd60e51b815260206004820152600e60248201526d139bdd08185d5d1a1bdc9a5e995960921b6044820152606490fd5b601f82116113b357505050565b5f5260205f20906020601f840160051c830193106113eb575b601f0160051c01905b8181106113e0575050565b5f81556001016113d5565b90915081906113cc565b61140d90602060405192828480945193849201610f5b565b810103902090565b909161142c6110c193604084526040840190610f7c565b916020818403910152610f7c565b805182101561144e5760209160051b010190565b634e487b7160e01b5f52603260045260245ffd5b5f818152600260205260409020546001600160a01b0316908115611484575090565b60249060405190637e27328960e01b82526004820152fd5b60408051926114aa84611002565b5f84526001600160a01b03938385169384156116a357825f5260209560028752845f20541683868215159283611672575b5f82815260038b528881208054600101905583815260028b5288812080546001600160a01b031916841790557fddf252ad1be2c89b69c2b068fc378daa952ba7f163c4a11628f55a4df523b3ef9080a461165b573b61153b575050505050565b846115789184959697945180938192630a85bd0160e11b968784523360048501525f60248501526044840152608060648401526084830190610f7c565b03815f895af15f918161161b575b506115e4575050503d5f146115dc573d926115a084611054565b936115ad83519586611032565b84523d5f8286013e5b835193846115d6578251633250574960e11b815260048101859052602490fd5b84925001fd5b6060926115b6565b9194506001600160e01b0319909116036116045750505f80808080611129565b602492505190633250574960e11b82526004820152fd5b9091508681813d8311611654575b6116338183611032565b8101031261019a57516001600160e01b03198116810361019a57905f611586565b503d611629565b83516339e3563760e11b81525f6004820152602490fd5b5f83815260046020526040812080546001600160a01b031916905581815260038b5288902080545f190190556114db565b8351633250574960e11b81525f6004820152602490fd5b919091805f526020906006825260405f2084519467ffffffffffffffff861161101e576116f1866116eb84546110c4565b846113a6565b8390601f871160011461174d579580611741927ff8e1a15aba9398e019f0b49df1a4fde98ee17ae345cb5f6b5e2c27f5033e8ce797985f926107425750508160011b915f199060031b1c19161790565b90555b604051908152a1565b90601f19871691835f52855f20925f5b8181106117ba57509160019391897ff8e1a15aba9398e019f0b49df1a4fde98ee17ae345cb5f6b5e2c27f5033e8ce7999a94106117a2575b505050811b019055611744565b01515f1960f88460031b161c191690555f8080611795565b92938760018192878601518155019501930161175d565b6007546001600160a01b031633036117e557565b60405163118cdaa760e01b8152336004820152602490fd5b9293909193843b61180f575050505050565b604051630a85bd0160e11b8082526001600160a01b039586166004830152938516602482015260448101919091526080606482015260209594909316939290859082908190611862906084830190610f7c565b03815f885af15f9181611906575b506118cf575050503d5f146118c7573d9161188a83611054565b926118986040519485611032565b83523d5f8285013e5b825192836118c257604051633250574960e11b815260048101849052602490fd5b019050fd5b6060916118a1565b9193506001600160e01b0319909116036118ee57505f80808080611129565b60249060405190633250574960e11b82526004820152fd5b9091508581813d831161193f575b61191e8183611032565b8101031261019a57516001600160e01b03198116810361019a57905f611870565b503d61191456fea26469706673582212204cb87be46b633ea4c5a64eeb25a365b153b51160e74b4d744426a86b041359e464736f6c63430008180033","linkReferences":{}},"methodIdentifiers":{"approve(address,uint256)":"095ea7b3","balanceOf(address)":"70a08231","getApproved(uint256)":"081812fc","getMetadata(uint256,string)":"cb4799f2","isApprovedForAll(address,address)":"e985e9c5","name()":"06fdde03","owner()":"8da5cb5b","ownerOf(uint256)":"6352211e","register()":"1aa3a008","register(string)":"f2c298be","register(string,(string,bytes)[])":"8ea42286","renounceOwnership()":"715018a6","safeTransferFrom(address,address,uint256)":"42842e0e","safeTransferFrom(address,address,uint256,bytes)":"b88d4fde","setAgentUri(uint256,string)":"5a753149","setApprovalForAll(address,bool)":"a22cb465","setMetadata(uint256,string,bytes)":"466648da","supportsInterface(bytes4)":"01ffc9a7","symbol()":"95d89b41","tokenURI(uint256)":"c87b56dd","transferFrom(address,address,uint256)":"23b872dd","transferOwnership(address)":"f2fde38b"},"id":0}