{"abi":[{"type":"constructor","inputs":[],"stateMutability":"nonpayable"},{"type":"function","name":"TRANSFER_WITH_AUTHORIZATION_TYPEHASH","inputs":[],"outputs":[{"name":"","type":"bytes32","internalType":"bytes32"}],"stateMutability":"view"},{"type":"function","name":"authorizationState","inputs":[{"name":"","type":"address","internalType":"address"},{"name":"","type":"bytes32","internalType":"bytes32"}],"outputs":[{"name":"","type":"bool","internalType":"bool"}],"stateMutability":"view"},{"type":"function","name":"cancelAuthorization","inputs":[{"name":"authorizer","type":"address","internalType":"address"},{"name":"nonce","type":"bytes32","internalType":"bytes32"},{"name":"v","type":"uint8","internalType":"uint8"},{"name":"r","type":"bytes32","internalType":"bytes32"},{"name":"s","type":"bytes32","internalType":"bytes32"}],"outputs":[],"stateMutability":"nonpayable"},{"type":"function","name":"eip712Domain","inputs":[],"outputs":[{"name":"fields","type":"bytes1","internalType":"bytes1"},{"name":"name","type":"string","internalType":"string"},{"name":"version","type":"string","internalType":"string"},{"name":"chainId","type":"uint256","internalType":"uint256"},{"name":"verifyingContract","type":"address","internalType":"address"},{"name":"salt","type":"bytes32","internalType":"bytes32"},{"name":"extensions","type":"uint256[]","internalType":"uint256[]"}],"stateMutability":"view"},{"type":"function","name":"transferWithAuthorization","inputs":[{"name":"token","type":"address","internalType":"address"},{"name":"from","type":"address","internalType":"address"},{"name":"to","type":"address","internalType":"address"},{"name":"value","type":"uint256","internalType":"uint256"},{"name":"validAfter","type":"uint256","internalType":"uint256"},{"name":"validBefore","type":"uint256","internalType":"uint256"},{"name":"nonce","type":"bytes32","internalType":"bytes32"},{"name":"v","type":"uint8","internalType":"uint8"},{"name":"r","type":"bytes32","internalType":"bytes32"},{"name":"s","type":"bytes32","internalType":"bytes32"}],"outputs":[],"stateMutability":"nonpayable"},{"type":"event","name":"AuthorizationCanceled","inputs":[{"name":"authorizer","type":"address","indexed":true,"internalType":"address"},{"name":"nonce","type":"bytes32","indexed":true,"internalType":"bytes32"}],"anonymous":false},{"type":"event","name":"AuthorizationUsed","inputs":[{"name":"authorizer","type":"address","indexed":true,"internalType":"address"},{"name":"nonce","type":"bytes32","indexed":true,"internalType":"bytes32"}],"anonymous":false},{"type":"event","name":"EIP712DomainChanged","inputs":[],"anonymous":false},{"type":"error","name":"ECDSAInvalidSignature","inputs":[]},{"type":"error","name":"ECDSAInvalidSignatureLength","inputs":[{"name":"length","type":"uint256","internalType":"uint256"}]},{"type":"error","name":"ECDSAInvalidSignatureS","inputs":[{"name":"s","type":"bytes32","internalType":"bytes32"}]},{"type":"error","name":"InvalidShortString","inputs":[]},{"type":"error","name":"StringTooLong","inputs":[{"name":"str","type":"string","internalType":"string"}]}],"bytecode":{"object":"0x6101608060405234620001465762000017816200014a565b600481526020810163211a181960e11b81526040519162000038836200014a565b6001835260208301603160f81b8152620000528262000166565b92610120938452620000648562000330565b92610140938452519020938460e05251902091610100938385524660a0526040519360208501917f8b73c3c69bb8fe3d512ecc4cf759cc79239f7b179b0ffacaa9a75d522b39400f8352604086015260608501524660808501523060a085015260a0845260c084019380851060018060401b038611176200013257846040525190206080523060c052610bc09384620004d8853960805184610793015260a0518461085f015260c0518461075d015260e051846107e2015251836108080152518260f20152518161011b0152f35b634e487b7160e01b5f52604160045260245ffd5b5f80fd5b604081019081106001600160401b038211176200013257604052565b805160209081811015620002005750601f825111620001a157808251920151908083106200019357501790565b825f19910360031b1b161790565b90604051809263305a27a960e01b82528060048301528251908160248401525f935b828510620001e6575050604492505f838284010152601f80199101168101030190fd5b8481018201518686016044015293810193859350620001c3565b906001600160401b03821162000132575f54926001938481811c9116801562000325575b838210146200031157601f8111620002db575b5081601f84116001146200027557509282939183925f9462000269575b50501b915f199060031b1c1916175f5560ff90565b015192505f8062000254565b919083601f1981165f8052845f20945f905b88838310620002c05750505010620002a7575b505050811b015f5560ff90565b01515f1960f88460031b161c191690555f80806200029a565b85870151885590960195948501948793509081019062000287565b5f805284601f845f20920160051c820191601f860160051c015b8281106200030557505062000237565b5f8155018590620002f5565b634e487b7160e01b5f52602260045260245ffd5b90607f169062000224565b805160209081811015620003bc5750601f8251116200035d57808251920151908083106200019357501790565b90604051809263305a27a960e01b82528060048301528251908160248401525f935b828510620003a2575050604492505f838284010152601f80199101168101030190fd5b84810182015186860160440152938101938593506200037f565b9192916001600160401b038111620001325760019182548381811c91168015620004cc575b828210146200031157601f811162000496575b5080601f8311600114620004325750819293945f9262000426575b50505f19600383901b1c191690821b17905560ff90565b015190505f806200040f565b90601f19831695845f52825f20925f905b8882106200047e575050838596971062000465575b505050811b01905560ff90565b01515f1960f88460031b161c191690555f808062000458565b80878596829496860151815501950193019062000443565b835f5283601f835f20920160051c820191601f850160051c015b828110620004c0575050620003f4565b5f8155018490620004b0565b90607f1690620003e156fe6080604090808252600480361015610015575f80fd5b60e0905f35821c9283635a049a701461050d575082635bbf47ee146101f757826384b0196e146100dc5750508063a0cc6a68146100a25763e94a01021461005a575f80fd5b3461009e578060031936011261009e576020906001600160a01b0361007d610674565b165f5260028252805f206024355f52825260ff815f20541690519015158152f35b5f80fd5b503461009e575f36600319011261009e57602090517f7c7c6cdb67a18743f49ec6fa9b35f50d52ed05cbed4cc592e13b44501c1a22678152f35b833461009e575f36600319011261009e576101167f0000000000000000000000000000000000000000000000000000000000000000610995565b61013f7f0000000000000000000000000000000000000000000000000000000000000000610ab9565b91805192602092602085019585871067ffffffffffffffff8811176101e4575095949391806020928661019993525f855261018c8251998a99600f60f81b8b5280878c01528a019061068a565b918883039089015261068a565b914660608701523060808701525f60a087015285830360c087015251918281520192915f5b8281106101cd57505050500390f35b8351855286955093810193928101926001016101be565b604190634e487b7160e01b5f525260245ffd5b833461009e5761014036600319011261009e57610212610674565b916001600160a01b036024803582811694929392919085900361009e57604491823585811680910361009e576064958635986084359960a4359b60c4359b60e4359160ff8316830361009e57814211156104cd578e421015610495578d9e8d9e999a9b9c9d5f5260209960028b52895f20905f528a5260ff895f20541661045557908f8f93928a51938c8501957f7c7c6cdb67a18743f49ec6fa9b35f50d52ed05cbed4cc592e13b44501c1a226787528c8601528a606086015287608086015260a085015260c0840152818301528152610100810181811067ffffffffffffffff82111761044357948f948f96958f968f968a6103578f9c978f93845f9b8f969361035e9861034e955251902061032761075a565b91519161190160f01b83526002830152602282015261012435916042610104359220610885565b90929192610912565b161461071a565b878552600289528a85209085528852898420600160ff19825416179055895198899788966323b872dd60e01b88528701528c8601528c850152165af1908115610439575f91610403575b50156103d65787877f98de503528ee59b575ef0c0a2576a82497bfc029a5685b209e9ec333479b10a55f80a3005b5162461bcd60e51b815293840152600f908301526e151c985b9cd9995c8819985a5b1959608a1b90820152fd5b90508281813d8311610432575b61041a81836106f8565b8101031261009e5751801515810361009e57896103a8565b503d610410565b82513d5f823e3d90fd5b8a60418e634e487b7160e01b5f52525ffd5b885162461bcd60e51b8152808e018b9052601a818d01527f417574686f72697a6174696f6e20616c72656164792075736564000000000000818e01528e90fd5b875162461bcd60e51b81526020818d01526015818b015274105d5d1a1bdc9a5e985d1a5bdb88195e1c1a5c9959605a1b818c01528c90fd5b875162461bcd60e51b81526020818d0152601b818b01527f417574686f72697a6174696f6e206e6f74207965742076616c69640000000000818c01528c90fd5b84903461009e5760a036600319011261009e57610528610674565b602435946044359460ff8616860361009e5760018060a01b0380931695865f5260209460028652865f20895f52865260ff875f20541661063e575061056b61075a565b92865192868401918983528a89860152888552606085019467ffffffffffffffff938187108588111761062b57868b5281519020608082019761190160f01b8952608283015260a2820152604286520191848310908311176101e4575087936105e995936103579361034e938a526084359260643592519020610885565b825f5260028152815f2090845f52525f20600160ff198254161790557f1cdd46ff242716cdaa72d159d339a485b3438398348d68f09d7c8c0a59353d815f80a3005b604184634e487b7160e01b5f525260245ffd5b62461bcd60e51b81528281018690526012602482015271105d5d1a1bdc9a5e985d1a5bdb881d5cd95960721b6044820152606490fd5b600435906001600160a01b038216820361009e57565b91908251928382525f5b8481106106b4575050825f602080949584010152601f8019910116010190565b602081830181015184830182015201610694565b6040810190811067ffffffffffffffff8211176106e457604052565b634e487b7160e01b5f52604160045260245ffd5b90601f8019910116810190811067ffffffffffffffff8211176106e457604052565b1561072157565b60405162461bcd60e51b8152602060048201526011602482015270496e76616c6964207369676e617475726560781b6044820152606490fd5b307f00000000000000000000000000000000000000000000000000000000000000006001600160a01b0316148061085c575b156107b5577f000000000000000000000000000000000000000000000000000000000000000090565b60405160208101907f8b73c3c69bb8fe3d512ecc4cf759cc79239f7b179b0ffacaa9a75d522b39400f82527f000000000000000000000000000000000000000000000000000000000000000060408201527f000000000000000000000000000000000000000000000000000000000000000060608201524660808201523060a082015260a0815260c0810181811067ffffffffffffffff8211176106e45760405251902090565b507f0000000000000000000000000000000000000000000000000000000000000000461461078c565b91907f7fffffffffffffffffffffffffffffff5d576e7357a4501ddfe92f46681b20a08411610907579160209360809260ff5f9560405194855216868401526040830152606082015282805260015afa156108fc575f516001600160a01b038116156108f257905f905f90565b505f906001905f90565b6040513d5f823e3d90fd5b5050505f9160039190565b60048110156109815780610924575050565b6001810361093e5760405163f645eedf60e01b8152600490fd5b6002810361095f5760405163fce698f760e01b815260048101839052602490fd5b6003146109695750565b602490604051906335e2f38360e21b82526004820152fd5b634e487b7160e01b5f52602160045260245ffd5b60ff81146109d35760ff811690601f82116109c157604051916109b7836106c8565b8252602082015290565b604051632cd44ac360e21b8152600490fd5b506040515f8054906001908260011c60018416928315610aaf575b6020948583108514610a9b578287528694908115610a7b5750600114610a20575b5050610a1d925003826106f8565b90565b5f8080527f290decd9548b62a8d60345a988386fc84ba6bc95484008f6362f93160ef3e56395935091905b818310610a63575050610a1d93508201015f80610a0f565b85548784018501529485019486945091830191610a4b565b915050610a1d94925060ff191682840152151560051b8201015f80610a0f565b634e487b7160e01b5f52602260045260245ffd5b90607f16906109ee565b60ff8114610adb5760ff811690601f82116109c157604051916109b7836106c8565b506040515f60018054918260011c60018416928315610b80575b6020948583108514610a9b578287528694908115610a7b5750600114610b23575050610a1d925003826106f8565b9093915060015f527fb10e2d527612073b26eecdfd717e6a320cf44b4afac2b0732d9fcbe2b7fa0cf6935f915b818310610b68575050610a1d93508201015f80610a0f565b85548784018501529485019486945091830191610b50565b90607f1690610af556fea26469706673582212209265976c4850aeb870a320e7a18f287a96cba145062ecff52e8f92f88524217564736f6c63430008180033","linkReferences":{}},"methodIdentifiers":{"TRANSFER_WITH_AUTHORIZATION_TYPEHASH()":"a0cc6a68","authorizationState(address,bytes32)":"e94a0102","cancelAuthorization(address,bytes32,uint8,bytes32,bytes32)":"5a049a70","eip712Domain()":"84b0196e","transferWithAuthorization(address,address,address,uint256,uint256,uint256,bytes32,uint8,bytes32,bytes32)":"5bbf47ee"},"id":47}