{"abi":[{"type":"constructor","inputs":[{"name":"_identityRegistry","type":"address","internalType":"address"}],"stateMutability":"nonpayable"},{"type":"function","name":"appendResponse","inputs":[{"name":"agentId","type":"uint256","internalType":"uint256"},{"name":"clientAddress","type":"address","internalType":"address"},{"name":"feedbackIndex","type":"uint64","internalType":"uint64"},{"name":"responseUri","type":"string","internalType":"string"},{"name":"responseHash","type":"bytes32","internalType":"bytes32"}],"outputs":[],"stateMutability":"nonpayable"},{"type":"function","name":"getClients","inputs":[{"name":"agentId","type":"uint256","internalType":"uint256"}],"outputs":[{"name":"","type":"address[]","internalType":"address[]"}],"stateMutability":"view"},{"type":"function","name":"getIdentityRegistry","inputs":[],"outputs":[{"name":"","type":"address","internalType":"address"}],"stateMutability":"view"},{"type":"function","name":"getLastIndex","inputs":[{"name":"agentId","type":"uint256","internalType":"uint256"},{"name":"clientAddress","type":"address","internalType":"address"}],"outputs":[{"name":"","type":"uint64","internalType":"uint64"}],"stateMutability":"view"},{"type":"function","name":"getResponseCount","inputs":[{"name":"agentId","type":"uint256","internalType":"uint256"},{"name":"clientAddress","type":"address","internalType":"address"},{"name":"feedbackIndex","type":"uint64","internalType":"uint64"},{"name":"responders","type":"address[]","internalType":"address[]"}],"outputs":[{"name":"count","type":"uint64","internalType":"uint64"}],"stateMutability":"view"},{"type":"function","name":"getSummary","inputs":[{"name":"agentId","type":"uint256","internalType":"uint256"},{"name":"clientAddresses","type":"address[]","internalType":"address[]"},{"name":"tag1","type":"bytes32","internalType":"bytes32"},{"name":"tag2","type":"bytes32","internalType":"bytes32"}],"outputs":[{"name":"count","type":"uint64","internalType":"uint64"},{"name":"averageScore","type":"uint8","internalType":"uint8"}],"stateMutability":"view"},{"type":"function","name":"giveFeedback","inputs":[{"name":"agentId","type":"uint256","internalType":"uint256"},{"name":"score","type":"uint8","internalType":"uint8"},{"name":"tag1","type":"bytes32","internalType":"bytes32"},{"name":"tag2","type":"bytes32","internalType":"bytes32"},{"name":"feedbackUri","type":"string","internalType":"string"},{"name":"feedbackHash","type":"bytes32","internalType":"bytes32"},{"name":"feedbackAuth","type":"bytes","internalType":"bytes"}],"outputs":[],"stateMutability":"nonpayable"},{"type":"function","name":"readAllFeedback","inputs":[{"name":"agentId","type":"uint256","internalType":"uint256"},{"name":"clientAddresses","type":"address[]","internalType":"address[]"},{"name":"tag1","type":"bytes32","internalType":"bytes32"},{"name":"tag2","type":"bytes32","internalType":"bytes32"},{"name":"includeRevoked","type":"bool","internalType":"bool"}],"outputs":[{"name":"clients","type":"address[]","internalType":"address[]"},{"name":"scores","type":"uint8[]","internalType":"uint8[]"},{"name":"tag1s","type":"bytes32[]","internalType":"bytes32[]"},{"name":"tag2s","type":"bytes32[]","internalType":"bytes32[]"},{"name":"revokedStatuses","type":"bool[]","internalType":"bool[]"}],"stateMutability":"view"},{"type":"function","name":"readFeedback","inputs":[{"name":"agentId","type":"uint256","internalType":"uint256"},{"name":"clientAddress","type":"address","internalType":"address"},{"name":"index","type":"uint64","internalType":"uint64"}],"outputs":[{"name":"score","type":"uint8","internalType":"uint8"},{"name":"tag1","type":"bytes32","internalType":"bytes32"},{"name":"tag2","type":"bytes32","internalType":"bytes32"},{"name":"isRevoked","type":"bool","internalType":"bool"}],"stateMutability":"view"},{"type":"function","name":"revokeFeedback","inputs":[{"name":"agentId","type":"uint256","internalType":"uint256"},{"name":"feedbackIndex","type":"uint64","internalType":"uint64"}],"outputs":[],"stateMutability":"nonpayable"},{"type":"event","name":"FeedbackRevoked","inputs":[{"name":"agentId","type":"uint256","indexed":true,"internalType":"uint256"},{"name":"clientAddress","type":"address","indexed":true,"internalType":"address"},{"name":"feedbackIndex","type":"uint64","indexed":true,"internalType":"uint64"}],"anonymous":false},{"type":"event","name":"NewFeedback","inputs":[{"name":"agentId","type":"uint256","indexed":true,"internalType":"uint256"},{"name":"clientAddress","type":"address","indexed":true,"internalType":"address"},{"name":"score","type":"uint8","indexed":false,"internalType":"uint8"},{"name":"tag1","type":"bytes32","indexed":true,"internalType":"bytes32"},{"name":"tag2","type":"bytes32","indexed":false,"internalType":"bytes32"},{"name":"feedbackUri","type":"string","indexed":false,"internalType":"string"},{"name":"feedbackHash","type":"bytes32","indexed":false,"internalType":"bytes32"}],"anonymous":false},{"type":"event","name":"ResponseAppended","inputs":[{"name":"agentId","type":"uint256","indexed":true,"internalType":"uint256"},{"name":"clientAddress","type":"address","indexed":true,"internalType":"address"},{"name":"feedbackIndex","type":"uint64","indexed":false,"internalType":"uint64"},{"name":"responder","type":"address","indexed":true,"internalType":"address"},{"name":"responseUri","type":"string","indexed":false,"internalType":"string"},{"name":"responseHash","type":"bytes32","indexed":false,"internalType":"bytes32"}],"anonymous":false},{"type":"error","name":"ECDSAInvalidSignature","inputs":[]},{"type":"error","name":"ECDSAInvalidSignatureLength","inputs":[{"name":"length","type":"uint256","internalType":"uint256"}]},{"type":"error","name":"ECDSAInvalidSignatureS","inputs":[{"name":"s","type":"bytes32","internalType":"bytes32"}]}],"bytecode":{"object":"0x60a0346100e357601f61230a38819003918201601f19168301916001600160401b038311848410176100e7578084926020946040528339810103126100e357516001600160a01b0381168082036100e357156100af5760805260405161220e90816100fc82396080518181816102cb01528181610ec001528181610f360152818161109b01528181611276015281816114ee015281816115ae015281816119ba01528181611a540152611eca0152f35b60405162461bcd60e51b815260206004820152600c60248201526b626164206964656e7469747960a01b6044820152606490fd5b5f80fd5b634e487b7160e01b5f52604160045260245ffdfe6080806040526004361015610012575f80fd5b5f3560e01c908163155e5bbd14610e2757508063232b081014610d6f57806331259cff14610b3757806342dd519c14610ab25780634ab3ca99146109aa5780636e04cacd146107da57806380b87594146102fa578063bc4d861b146102b6578063c2349ab2146100db5763f2d817591461008a575f80fd5b346100d75760403660031901126100d7576100a3611b61565b6004355f52600160205260405f209060018060a01b03165f5260205260206001600160401b0360405f205416604051908152f35b5f80fd5b346100d75760a03660031901126100d7576004356100f7611b61565b6100ff611b8b565b6001600160401b0392906064358481116100d75761012285913690600401611b34565b9190921694610132861515611d49565b835f526020906001825260405f209560018060a01b031695865f5282526101618160405f205416881115611d89565b8215610285579160607fb1c6be0b5b8aef6539e2fac0fd131a2faa7b49edf8e505b5eb0ad487d56051d4949261021894875f526004825260405f20895f52825260405f208a5f52825260405f20335f52825260ff60405f20541615610229575b875f526002825260405f20895f52825260405f208a5f52825260405f20335f52825260405f20908154906101f6818316611e4c565b16906001600160401b0319161790556040519889528801526060870191611d29565b9360843560408201528033950390a4005b875f526003825260405f20895f52825260405f208a5f52825261024f3360405f20611ccb565b875f526004825260405f20895f52825260405f208a5f52825260405f20335f52825260405f20600160ff198254161790556101c1565b60405162461bcd60e51b8152600481018390526009602482015268456d7074792055524960b81b6044820152606490fd5b346100d7575f3660031901126100d7576040517f00000000000000000000000000000000000000000000000000000000000000006001600160a01b03168152602090f35b346100d75760a03660031901126100d7576024356001600160401b0381116100d75761032a903690600401611ba1565b6084359182151583036100d757811561076e57610348913691611de2565b5f80925b825184101561047c576004355f9081526001602052604090206001600160a01b036103778686611e38565b51165f526020526001600160401b0360405f205416926001925b846001600160401b0385161161046e576004355f9081526020819052604090206001600160a01b036103c38885611e38565b51165f5260205260405f206001600160401b0385165f5260205260405f2083158415610460575b610445576044351515604435610450575b61044557606435151590606435610434575b5061042a5761041e61042491611e64565b93611e4c565b92610391565b9261042490611e4c565b60020154606435141590508761040d565b509261042490611e4c565b50604435600182015414156103fb565b5060ff6003820154166103ea565b92509250926001019261034c565b9061048681611dcb565b906104946040519283611c40565b8082526104a081611dcb565b601f19013660208401376104b381611dcb565b906104c16040519283611c40565b8082526104cd81611dcb565b601f19013660208401376104e081611e72565b926104ea82611e72565b9561050d6104f784611dcb565b936105056040519586611c40565b808552611dcb565b601f19013660208501375f935f5b82518110156106b5576004355f9081526001602052604090206001600160a01b036105468386611e38565b51165f526020526001600160401b0360405f205416976001965b896001600160401b038916116106a9576004355f9081526020819052604090206001600160a01b036105928588611e38565b51165f5260205260405f206001600160401b0389165f526020528860405f208315841561069b575b61067f57604435151560443561068b575b61067f578c606435151560643561066f575b610662579160038492610656948b61060c61065c988d6106048d60018060a01b0392611e38565b511692611e38565b5260ff938483541661061e878d611e38565b5261062e86600185015492611e38565b5261063e85600284015492611e38565b5201541661064c828b611e38565b9015159052611e64565b97611e4c565b96610560565b5050509661065c90611e4c565b50606435600283015414156105dd565b50509661065c90611e4c565b50604435600182015414156105cb565b5060ff6003820154166105ba565b9650975060010161051b565b50828489886106cf6040519460a0865260a0860190611bd1565b8481036020860152602080875192838152019601905f5b81811061075557505050906107078561071593868098036040880152611c0d565b908482036060860152611c0d565b8281036080840152602080835192838152019201905f5b81811061073a575050500390f35b8251151584528594506020938401939092019160010161072c565b825160ff168852602097880197909201916001016106e6565b50506004355f526020600560205260405f209060405180928391602082549182815201915f5260205f20935f905b8282106107b7575050506107b292500382611c40565b610348565b85546001600160a01b03168452600195860195879550938101939091019061079c565b346100d75760803660031901126100d7576004356107f6611b61565b906107ff611b8b565b916001600160401b03916064358381116100d757610821903690600401611ba1565b6001600160a01b03955f9491939190878216908161091d57505050805f526020956005875260405f2060405180828a8294549384815201905f528a5f20925f5b8c8282106109055750505061087892500382611c40565b5f5b81518110156108f057835f526001808a5260405f208461089a8486611e38565b51165f528a528860405f2054165b808a831611156108bc57505060010161087a565b90976108e46108ea916108de8a8a8d8a6108d68a8c611e38565b51168c611f27565b90611cb0565b98611e4c565b906108a8565b50505050505090602092505b60405191168152f35b85548816845260019586019587955093019201610861565b90919295968098508116155f146109935750845f9493929452600160205260405f20905f526020528560405f205416926001945b848887161115610969575050505050506020916108fc565b909192939495610983610989916108de87878b8888611f27565b96611e4c565b9493929190610951565b91905060209695506109a494611f27565b906108fc565b346100d75760403660031901126100d757600435602435906001600160401b038083168093036100d7576109df831515611d49565b815f52610a036020916001835260405f20335f52835260405f205416841115611d89565b815f525f815260405f20335f52815260405f20835f52815260ff600360405f20015416610a7c57815f525f815260405f20335f52815260405f2090835f5252600360405f2001600160ff1982541617905533907f25156fd3288212246d8b008d5921fde376c71ed14ac2e072a506eb06fde6d09d5f80a4005b6064906040519062461bcd60e51b82526004820152600f60248201526e105b1c9958591e481c995d9bdad959608a1b6044820152fd5b346100d7576020806003193601126100d7576004355f526005815260405f20906040518083838295549384815201905f52835f20925f5b85828210610b1857505050610b0092500383611c40565b610b14604051928284938452830190611bd1565b0390f35b85546001600160a01b0316845260019586019588955093019201610ae9565b346100d75760803660031901126100d7576024356001600160401b0381116100d757610b67903690600401611ba1565b908115610d0357610b79913691611de2565b5f905f805b8251811015610cb5576004355f9081526001602052604090206001600160a01b03610ba98386611e38565b51165f526020526001600160401b0360405f205416926001945b846001600160401b03871611610ca9576004355f9081526020819052604090206001600160a01b03610bf58585611e38565b51165f5260205260405f206001600160401b0387165f5260205260405f2060ff600382015416610c7d576044351515604435610c99575b610c7d576064351515606435610c89575b610c7d5760ff9054168101809111610c6957610c5c610c629194611e4c565b95611e4c565b9492610bc3565b634e487b7160e01b5f52601160045260245ffd5b509294610c6290611e4c565b5060643560028201541415610c3d565b5060443560018201541415610c2c565b94509250600101610b7e565b836001600160401b038316801580610cf657610ce25760ff808260409404165b8351928352166020820152f35b634e487b7160e01b5f52601260045260245ffd5b506040915060ff5f610cd5565b50506004355f526020600560205260405f209060405180928391602082549182815201915f5260205f20935f905b828210610d4c57505050610d4792500382611c40565b610b79565b85546001600160a01b031684526001958601958795509381019390910190610d31565b346100d75760603660031901126100d7576080600435610d8d611b61565b906001600160401b039182610da0611b8b565b1691610dad831515611d49565b805f52610ddb6020946001865260405f209360018060a01b031693845f52865260405f205416841115611d89565b5f525f835260405f20905f52825260405f20905f52815260405f209060ff82541691600181015460ff600360028401549301541692604051948552840152604083015215156060820152f35b346100d75760e03660031901126100d75760243560ff81168091036100d757604435916084356001600160401b0381116100d757610e69903690600401611b34565b9160c4356001600160401b0381116100d757610e89903690600401611b34565b9160648611611b065750610e9e600435611ea4565b15611aca576040516331a9108f60e11b815260048035908201526020816024817f00000000000000000000000000000000000000000000000000000000000000006001600160a01b03165afa908115611570575f91611aab575b50336001600160a01b03821614159081611a23575b508061199c575b15611957576040516331a9108f60e11b815260048035908201526020816024817f00000000000000000000000000000000000000000000000000000000000000006001600160a01b03165afa908115611570575f91611938575b506001600160a01b0316156118fe5761012182106118c357604051918260e08101106001600160401b0360e08501111761147c5760e083016040525f83525f60208401525f60408401525f60608401525f60808401525f60a08401525f60c08401528060e0116100d7578135610fe660208401611b77565b60408401356001600160401b0381168091036100d75761100860a08601611b77565b6001600160a01b0361101c60c08801611b77565b1660c08801526001600160a01b0390811660a0880152608086810135908801526060808701359088015260408701919091521660208501528084526004350361188b576020830151336001600160a01b039091160361185457606083015142101561182057608083015146036117e85760a08301516001600160a01b037f000000000000000000000000000000000000000000000000000000000000000081169116036117af576001600160401b036040840151166004355f52600160205260405f20335f526020526001600160401b036110fc8160405f205416611c98565b16116117745782519160018060a01b036020850151166001600160401b03604086015116606086015160808701519060018060a01b0360a0890151169260018060a01b0360c08a015116946040519860208a015260408901526060880152608087015260a086015260c085015260e084015260e08352826101008101106001600160401b036101008501111761147c576101008301604052825160208401207f19457468657265756d205369676e6564204d6573736167653a0a3332000000005f52601c52603c5f20926001600160401b0360df1984011161147c576111f160c0198401601f19166020016101008301611c40565b60df19830161010082015236828401116100d75761122d6101006112369260df19860160e086016101208301375f604087830101520185612099565b909291926120d3565b60c08501516001600160a01b03908116911681900361163f575b505082516040516331a9108f60e11b8152600481019190915292915060209050826024817f00000000000000000000000000000000000000000000000000000000000000006001600160a01b03165afa918215611570575f9261161e575b5060c08101516001600160a01b03838116911690811492831561157b575b505081156114cd575b5015611490576004355f52600160205260405f20335f526020526113056001600160401b0360405f205416611c98565b9160405160808101938185106001600160401b0386111761147c5761140994604052858252602082019187835260036040820191606435835260608101925f84526004355f525f60205260405f20335f526020526001600160401b0360405f20951694855f5260205260ff60405f209251169560ff199687845416178355516001830155516002820155019051151560ff8483541691161790556004355f52600160205260405f20335f5260205260405f20906001600160401b03198254161790556004355f52600660205260405f20335f5260205260ff60405f2054161561143e575b506040519384526064356020850152608060408501526080840191611d29565b60a43560608301527f54b3254e4cc01969e70376d20390cc2f6af90539d9adaa78a53ebcda17f78154339280600435930390a4005b6004355f5260056020526114553360405f20611ccb565b6004355f52600660205260405f20335f52602052600160405f2091825416179055856113e9565b634e487b7160e01b5f52604160045260245ffd5b60405162461bcd60e51b815260206004820152601560248201527414da59db995c881b9bdd08185d5d1a1bdc9a5e9959605a1b6044820152606490fd5b805160405163020604bf60e21b8152600481019190915291506020826024817f00000000000000000000000000000000000000000000000000000000000000006001600160a01b03165afa918215611570575f9261153f575b5060c001516001600160a01b03918216911614856112d5565b61156291925060203d602011611569575b61155a8183611c40565b810190611c61565b9086611526565b503d611550565b6040513d5f823e3d90fd5b60405163e985e9c560e01b81526001600160a01b03918216600482015291166024820152909150602081806044810103817f00000000000000000000000000000000000000000000000000000000000000006001600160a01b03165afa908115611570575f916115ef575b509086806112cc565b611611915060203d602011611617575b6116098183611c40565b810190611c80565b866115e6565b503d6115ff565b61163891925060203d6020116115695761155a8183611c40565b90866112ae565b3b1561173b5760c084015160408051630b135d3f60e11b808252600482019690965260248101919091529260209284926001600160a01b0316918391829161169391604484019160df19019060e001611d29565b03915afa908115611570575f916116f8575b506001600160e01b031916036116be5785808080611250565b60405162461bcd60e51b81526020600482015260126024820152714261642031323731207369676e617475726560701b6044820152606490fd5b90506020813d602011611733575b8161171360209383611c40565b810103126100d757516001600160e01b0319811681036100d757876116a5565b3d9150611706565b60405162461bcd60e51b8152602060048201526011602482015270496e76616c6964207369676e617475726560781b6044820152606490fd5b60405162461bcd60e51b8152602060048201526013602482015272125b99195e131a5b5a5d08195e18d959591959606a1b6044820152606490fd5b60405162461bcd60e51b81526020600482015260116024820152700a4caced2e6e8e4f240dad2e6dac2e8c6d607b1b6044820152606490fd5b60405162461bcd60e51b815260206004820152601060248201526f086d0c2d2dc92c840dad2e6dac2e8c6d60831b6044820152606490fd5b60405162461bcd60e51b815260206004820152600c60248201526b105d5d1a08195e1c1a5c995960a21b6044820152606490fd5b60405162461bcd60e51b815260206004820152600f60248201526e086d8d2cadce840dad2e6dac2e8c6d608b1b6044820152606490fd5b60405162461bcd60e51b815260206004820152601060248201526f082cecadce892c840dad2e6dac2e8c6d60831b6044820152606490fd5b60405162461bcd60e51b8152602060048201526013602482015272092dcecc2d8d2c840c2eae8d040d8cadccee8d606b1b6044820152606490fd5b60405162461bcd60e51b8152602060048201526012602482015271155b9c9959da5cdd195c9959081859d95b9d60721b6044820152606490fd5b611951915060203d6020116115695761155a8183611c40565b87610f6e565b60405162461bcd60e51b815260206004820152601960248201527f53656c662d666565646261636b206e6f7420616c6c6f776564000000000000006044820152606490fd5b5060405163020604bf60e21b815260048035908201526020816024817f00000000000000000000000000000000000000000000000000000000000000006001600160a01b03165afa908115611570575f91611a04575b506001600160a01b0316331415610f14565b611a1d915060203d6020116115695761155a8183611c40565b876119f2565b60405163e985e9c560e01b81526001600160a01b0391821660048201523360248201529150602090829060449082907f0000000000000000000000000000000000000000000000000000000000000000165afa908115611570575f91611a8c575b501587610f0d565b611aa5915060203d602011611617576116098183611c40565b87611a84565b611ac4915060203d6020116115695761155a8183611c40565b87610ef8565b60405162461bcd60e51b81526020600482015260146024820152731059d95b9d08191bd95cc81b9bdd08195e1a5cdd60621b6044820152606490fd5b62461bcd60e51b8152602060048201526009602482015268073636f72653e3130360bc1b6044820152606490fd5b9181601f840112156100d7578235916001600160401b0383116100d757602083818601950101116100d757565b602435906001600160a01b03821682036100d757565b35906001600160a01b03821682036100d757565b604435906001600160401b03821682036100d757565b9181601f840112156100d7578235916001600160401b0383116100d7576020808501948460051b0101116100d757565b9081518082526020808093019301915f5b828110611bf0575050505090565b83516001600160a01b031685529381019392810192600101611be2565b9081518082526020808093019301915f5b828110611c2c575050505090565b835185529381019392810192600101611c1e565b90601f801991011681019081106001600160401b0382111761147c57604052565b908160209103126100d757516001600160a01b03811681036100d75790565b908160209103126100d7575180151581036100d75790565b9060016001600160401b0380931601918211610c6957565b9190916001600160401b0380809416911601918211610c6957565b8054906801000000000000000082101561147c5760018201808255821015611d15575f5260205f20019060018060a01b03166bffffffffffffffffffffffff60a01b825416179055565b634e487b7160e01b5f52603260045260245ffd5b908060209392818452848401375f828201840152601f01601f1916010190565b15611d5057565b60405162461bcd60e51b81526020600482015260116024820152700696e646578206d757374206265203e203607c1b6044820152606490fd5b15611d9057565b60405162461bcd60e51b8152602060048201526013602482015272696e646578206f7574206f6620626f756e647360681b6044820152606490fd5b6001600160401b03811161147c5760051b60200190565b9291611ded82611dcb565b91611dfb6040519384611c40565b829481845260208094019160051b81019283116100d757905b828210611e215750505050565b838091611e2d84611b77565b815201910190611e14565b8051821015611d155760209160051b010190565b6001600160401b03809116908114610c695760010190565b5f198114610c695760010190565b90611e7c82611dcb565b611e896040519182611c40565b8281528092611e9a601f1991611dcb565b0190602036910137565b6040516331a9108f60e11b815260048101919091526001600160a01b03906020816024817f000000000000000000000000000000000000000000000000000000000000000086165afa5f9181611f06575b50611f005750505f90565b16151590565b611f2091925060203d6020116115695761155a8183611c40565b905f611ef5565b9091929493945f9580155f14612014575050805f52602060038152604092835f2060018060a01b0380921690815f528352845f20906001600160401b0380971691825f528452855f209486518087878299549384815201905f52875f20925f5b89828210611ffc57505050611f9e92500387611c40565b5f995b86518b1015611ff057611fe8600191835f5260028852895f20855f528852895f20865f5288528c87611fd68c5f20928c611e38565b51165f5288528a8a5f20541690611cb0565b9a0199611fa1565b99505050505050505050565b85548a1684526001958601958c955093019201611f87565b91935f939193945b83861061202b57505050505050565b909192939496815f5260209060028252604090815f209160018060a01b03928388165f528452805f20906001600160401b03918288165f528552805f208c60051b8b01359485168095036100d75760019561208d955f52525f20541690611cb0565b9701949392919061201c565b81519190604183036120c9576120c29250602082015190606060408401519301515f1a90612156565b9192909190565b50505f9160029190565b600481101561214257806120e5575050565b600181036120ff5760405163f645eedf60e01b8152600490fd5b600281036121205760405163fce698f760e01b815260048101839052602490fd5b60031461212a5750565b602490604051906335e2f38360e21b82526004820152fd5b634e487b7160e01b5f52602160045260245ffd5b91907f7fffffffffffffffffffffffffffffff5d576e7357a4501ddfe92f46681b20a084116121cd579160209360809260ff5f9560405194855216868401526040830152606082015282805260015afa15611570575f516001600160a01b038116156121c357905f905f90565b505f906001905f90565b5050505f916003919056fea264697066735822122055e55f4c6c07f64c50ab76ab7c445b82b1f2069065bec023d55502af3b96410f64736f6c63430008180033","linkReferences":{}},"methodIdentifiers":{"appendResponse(uint256,address,uint64,string,bytes32)":"c2349ab2","getClients(uint256)":"42dd519c","getIdentityRegistry()":"bc4d861b","getLastIndex(uint256,address)":"f2d81759","getResponseCount(uint256,address,uint64,address[])":"6e04cacd","getSummary(uint256,address[],bytes32,bytes32)":"31259cff","giveFeedback(uint256,uint8,bytes32,bytes32,string,bytes32,bytes)":"155e5bbd","readAllFeedback(uint256,address[],bytes32,bytes32,bool)":"80b87594","readFeedback(uint256,address,uint64)":"232b0810","revokeFeedback(uint256,uint64)":"4ab3ca99"},"id":1}