{"abi":[{"type":"constructor","inputs":[{"name":"_identityRegistry","type":"address","internalType":"address"},{"name":"_reputationRegistry","type":"address","internalType":"address"},{"name":"_validationRegistry","type":"address","internalType":"address"}],"stateMutability":"nonpayable"},{"type":"function","name":"PLATFORM_FEE_BPS","inputs":[],"outputs":[{"name":"","type":"uint256","internalType":"uint256"}],"stateMutability":"view"},{"type":"function","name":"agentBounties","inputs":[{"name":"","type":"uint256","internalType":"uint256"},{"name":"","type":"uint256","internalType":"uint256"}],"outputs":[{"name":"","type":"uint256","internalType":"uint256"}],"stateMutability":"view"},{"type":"function","name":"bounties","inputs":[{"name":"","type":"uint256","internalType":"uint256"}],"outputs":[{"name":"bountyId","type":"uint256","internalType":"uint256"},{"name":"creator","type":"address","internalType":"address"},{"name":"description","type":"string","internalType":"string"},{"name":"rewardAmount","type":"uint256","internalType":"uint256"},{"name":"rewardToken","type":"address","internalType":"address"},{"name":"status","type":"uint8","internalType":"enum BountySystemERC8004.BountyStatus"},{"name":"submissionDeadline","type":"uint256","internalType":"uint256"},{"name":"createdAt","type":"uint256","internalType":"uint256"},{"name":"assignedAgentId","type":"uint256","internalType":"uint256"},{"name":"resultURI","type":"string","internalType":"string"}],"stateMutability":"view"},{"type":"function","name":"claimBounty","inputs":[{"name":"bountyId","type":"uint256","internalType":"uint256"},{"name":"agentId","type":"uint256","internalType":"uint256"}],"outputs":[],"stateMutability":"nonpayable"},{"type":"function","name":"completeBounty","inputs":[{"name":"bountyId","type":"uint256","internalType":"uint256"},{"name":"score","type":"uint8","internalType":"uint8"},{"name":"tag1","type":"bytes32","internalType":"bytes32"},{"name":"tag2","type":"bytes32","internalType":"bytes32"},{"name":"feedbackUri","type":"string","internalType":"string"},{"name":"feedbackHash","type":"bytes32","internalType":"bytes32"},{"name":"feedbackAuth","type":"bytes","internalType":"bytes"}],"outputs":[],"stateMutability":"nonpayable"},{"type":"function","name":"createBounty","inputs":[{"name":"description","type":"string","internalType":"string"},{"name":"rewardAmount","type":"uint256","internalType":"uint256"},{"name":"rewardToken","type":"address","internalType":"address"},{"name":"submissionDeadline","type":"uint256","internalType":"uint256"}],"outputs":[{"name":"","type":"uint256","internalType":"uint256"}],"stateMutability":"payable"},{"type":"function","name":"getAgentBounties","inputs":[{"name":"agentId","type":"uint256","internalType":"uint256"}],"outputs":[{"name":"","type":"uint256[]","internalType":"uint256[]"}],"stateMutability":"view"},{"type":"function","name":"getAgentReputation","inputs":[{"name":"agentId","type":"uint256","internalType":"uint256"}],"outputs":[{"name":"count","type":"uint64","internalType":"uint64"},{"name":"avgScore","type":"uint8","internalType":"uint8"}],"stateMutability":"view"},{"type":"function","name":"getAgentValidations","inputs":[{"name":"agentId","type":"uint256","internalType":"uint256"}],"outputs":[{"name":"count","type":"uint64","internalType":"uint64"},{"name":"avgResponse","type":"uint8","internalType":"uint8"}],"stateMutability":"view"},{"type":"function","name":"getBounty","inputs":[{"name":"bountyId","type":"uint256","internalType":"uint256"}],"outputs":[{"name":"","type":"tuple","internalType":"struct BountySystemERC8004.Bounty","components":[{"name":"bountyId","type":"uint256","internalType":"uint256"},{"name":"creator","type":"address","internalType":"address"},{"name":"description","type":"string","internalType":"string"},{"name":"rewardAmount","type":"uint256","internalType":"uint256"},{"name":"rewardToken","type":"address","internalType":"address"},{"name":"status","type":"uint8","internalType":"enum BountySystemERC8004.BountyStatus"},{"name":"submissionDeadline","type":"uint256","internalType":"uint256"},{"name":"createdAt","type":"uint256","internalType":"uint256"},{"name":"assignedAgentId","type":"uint256","internalType":"uint256"},{"name":"resultURI","type":"string","internalType":"string"}]}],"stateMutability":"view"},{"type":"function","name":"getSubmissions","inputs":[{"name":"bountyId","type":"uint256","internalType":"uint256"}],"outputs":[{"name":"","type":"tuple[]","internalType":"struct BountySystemERC8004.Submission[]","components":[{"name":"agentId","type":"uint256","internalType":"uint256"},{"name":"agentWallet","type":"address","internalType":"address"},{"name":"resultHash","type":"string","internalType":"string"},{"name":"resultURI","type":"string","internalType":"string"},{"name":"timestamp","type":"uint256","internalType":"uint256"},{"name":"signature","type":"bytes","internalType":"bytes"}]}],"stateMutability":"view"},{"type":"function","name":"identityRegistry","inputs":[],"outputs":[{"name":"","type":"address","internalType":"contract IdentityRegistry"}],"stateMutability":"view"},{"type":"function","name":"nextBountyId","inputs":[],"outputs":[{"name":"","type":"uint256","internalType":"uint256"}],"stateMutability":"view"},{"type":"function","name":"owner","inputs":[],"outputs":[{"name":"","type":"address","internalType":"address"}],"stateMutability":"view"},{"type":"function","name":"renounceOwnership","inputs":[],"outputs":[],"stateMutability":"nonpayable"},{"type":"function","name":"reputationRegistry","inputs":[],"outputs":[{"name":"","type":"address","internalType":"contract ReputationRegistry"}],"stateMutability":"view"},{"type":"function","name":"submissions","inputs":[{"name":"","type":"uint256","internalType":"uint256"},{"name":"","type":"uint256","internalType":"uint256"}],"outputs":[{"name":"agentId","type":"uint256","internalType":"uint256"},{"name":"agentWallet","type":"address","internalType":"address"},{"name":"resultHash","type":"string","internalType":"string"},{"name":"resultURI","type":"string","internalType":"string"},{"name":"timestamp","type":"uint256","internalType":"uint256"},{"name":"signature","type":"bytes","internalType":"bytes"}],"stateMutability":"view"},{"type":"function","name":"submitWork","inputs":[{"name":"bountyId","type":"uint256","internalType":"uint256"},{"name":"resultHash","type":"string","internalType":"string"},{"name":"resultURI","type":"string","internalType":"string"},{"name":"signature","type":"bytes","internalType":"bytes"}],"outputs":[],"stateMutability":"nonpayable"},{"type":"function","name":"transferOwnership","inputs":[{"name":"newOwner","type":"address","internalType":"address"}],"outputs":[],"stateMutability":"nonpayable"},{"type":"function","name":"validationRegistry","inputs":[],"outputs":[{"name":"","type":"address","internalType":"contract ValidationRegistry"}],"stateMutability":"view"},{"type":"event","name":"BountyClaimed","inputs":[{"name":"bountyId","type":"uint256","indexed":true,"internalType":"uint256"},{"name":"agentId","type":"uint256","indexed":true,"internalType":"uint256"}],"anonymous":false},{"type":"event","name":"BountyCompleted","inputs":[{"name":"bountyId","type":"uint256","indexed":true,"internalType":"uint256"},{"name":"agentId","type":"uint256","indexed":true,"internalType":"uint256"},{"name":"payout","type":"uint256","indexed":false,"internalType":"uint256"}],"anonymous":false},{"type":"event","name":"BountyCreated","inputs":[{"name":"bountyId","type":"uint256","indexed":true,"internalType":"uint256"},{"name":"creator","type":"address","indexed":true,"internalType":"address"},{"name":"amount","type":"uint256","indexed":false,"internalType":"uint256"}],"anonymous":false},{"type":"event","name":"BountySubmitted","inputs":[{"name":"bountyId","type":"uint256","indexed":true,"internalType":"uint256"},{"name":"agentId","type":"uint256","indexed":true,"internalType":"uint256"},{"name":"resultURI","type":"string","indexed":false,"internalType":"string"}],"anonymous":false},{"type":"event","name":"FeedbackGiven","inputs":[{"name":"bountyId","type":"uint256","indexed":true,"internalType":"uint256"},{"name":"agentId","type":"uint256","indexed":true,"internalType":"uint256"},{"name":"score","type":"uint8","indexed":false,"internalType":"uint8"}],"anonymous":false},{"type":"event","name":"OwnershipTransferred","inputs":[{"name":"previousOwner","type":"address","indexed":true,"internalType":"address"},{"name":"newOwner","type":"address","indexed":true,"internalType":"address"}],"anonymous":false},{"type":"error","name":"OwnableInvalidOwner","inputs":[{"name":"owner","type":"address","internalType":"address"}]},{"type":"error","name":"OwnableUnauthorizedAccount","inputs":[{"name":"account","type":"address","internalType":"address"}]}],"bytecode":{"object":"0x60e0346200022657601f6200230038819003918201601f191683019291906001600160401b038411838510176200022a578160609284926040968752833981010312620002265762000051816200023e565b6200006c8362000064602085016200023e565b93016200023e565b9033156200020f575f8054336001600160a01b03198216811783558651956001600160a01b0394909385939192918416907f8be0079c531659141344cd1fd0a4f28419497f9722a3daafe3b4186f6b6457e09080a36001805516938415620001cd57508116918215620001895716918215620001455760805260a05260c052516120ac90816200025482396080518181816103dc0152818161083f0152818161155e0152611cb8015260a05181818161069b015281816107480152818161087a0152610912015260c051818181610cd401526114270152f35b835162461bcd60e51b815260206004820152601b60248201527f496e76616c69642076616c69646174696f6e20726567697374727900000000006044820152606490fd5b845162461bcd60e51b815260206004820152601b60248201527f496e76616c69642072657075746174696f6e20726567697374727900000000006044820152606490fd5b62461bcd60e51b815260206004820152601960248201527f496e76616c6964206964656e74697479207265676973747279000000000000006044820152606490fd5b8351631e4fbdf760e01b81525f6004820152602490fd5b5f80fd5b634e487b7160e01b5f52604160045260245ffd5b51906001600160a01b0382168203620002265756fe6080806040526004361015610012575f80fd5b5f905f3560e01c908163134e18f414611ca65750806316c53ced14611b0757806323148eb3146114935780634b7061ba146114565780634c6b993a14611412578063539aa77f146113f6578063568c499b1461135657806369c1fc251461127e5780636ceefda314610da6578063715018a614610d4f5780638d5d0c2d14610c7d5780638da5cb5b14610c56578063c34b091a14610777578063c8db44e314610732578063cb43091f1461063a578063dc2f874414610559578063de03fe1d14610382578063ee8c4bbf146101ad578063f2fde38b1461011a5763fd14fad4146100fa575f80fd5b346101175780600319360112610117576020600154604051908152f35b80fd5b5034610117576020366003190112610117576004356001600160a01b03818116918290036101a95761014a61204b565b8115610190575f54826bffffffffffffffffffffffff60a01b8216175f55167f8be0079c531659141344cd1fd0a4f28419497f9722a3daafe3b4186f6b6457e05f80a380f35b604051631e4fbdf760e01b815260048101849052602490fd5b5f80fd5b503461011757602036600319011261011757604090606061012083516101d281611e8e565b838152836020820152828582015283838201528360808201528360a08201528360c08201528360e0820152836101008201520152600435815260026020522060405161021d81611e8e565b8154815260018201546001600160a01b0316602082015260405161024f816102488160028701611de2565b0382611ec5565b60408201526003820154606082015260048201546001600160a01b038116608083015260a01c60ff1691600683101561036e576102c060089161036a9460a0850152600581015460c0850152600681015460e085015260078101546101008501526102486040518094819301611de2565b610120820152604051918291602083528051602084015260018060a01b036020820151166040840152604081015161012061030961014092836060880152610160870190611ce7565b926060810151608087015260018060a01b0360808201511660a087015261033860a082015160c0880190611ee6565b60c081015160e087015260e081015161010087015261010081015182870152015190601f198584030190850152611ce7565b0390f35b634e487b7160e01b5f52602160045260245ffd5b50346101175761039136611d52565b908083526020600281526040842060048101805460ff8160a01c16600681101561054557610515576040516331a9108f60e11b8152600481018790526001600160a01b0385826024817f000000000000000000000000000000000000000000000000000000000000000085165afa91821561050a5789926104db575b50339116036104a45760ff60a01b1916600160a01b1790556007018390558284526004905260408320805490600160401b821015610490579061045591600182018155611d68565b81549060031b9083821b915f19901b19161790557f340b2abbcc2349059d9038b2ed5445a43cc33d0a8f0448e4623baa8fe5a0a74b8380a380f35b634e487b7160e01b85526041600452602485fd5b60405162461bcd60e51b815260048101859052600f60248201526e2737ba1030b3b2b73a1037bbb732b960891b6044820152606490fd5b6104fc919250863d8811610503575b6104f48183611ec5565b810190611ef3565b905f61040d565b503d6104ea565b6040513d8b823e3d90fd5b60405162461bcd60e51b81526004810185905260086024820152672737ba1037b832b760c11b6044820152606490fd5b634e487b7160e01b88526021600452602488fd5b5034610117576020366003190112610117576040906004358152600260205220604061036a825492600860018060a01b03918260018201541685516105a5816102488160028701611de2565b61061c6003840154956004850154906105ff6005870154946006880154966105e260078a0154996105db8f51809d819301611de2565b038b611ec5565b8c519d8e9d8e6101409384938252602082015201528c0190611ce7565b9760608b0152811660808a015260ff60a08a019160a01c16611ee6565b60c087015260e0860152610100850152838203610120850152611ce7565b503461011757602036600319011261011757610689906040805161065d81611eaa565b8281528151809481926331259cff60e01b8352600435600484015260806024840152608483019061200f565b604482018590526064820185905203817f00000000000000000000000000000000000000000000000000000000000000006001600160a01b03165afa9182156107255781926106f3575b50604080516001600160401b0392909216825260ff929092166020820152f35b9050610717915060403d60401161071e575b61070f8183611ec5565b810190611fde565b905f6106d3565b503d610705565b50604051903d90823e3d90fd5b50346101175780600319360112610117576040517f00000000000000000000000000000000000000000000000000000000000000006001600160a01b03168152602090f35b50346101a95760e03660031901126101a95760243560ff811681036101a9576084356001600160401b0381116101a9576107b5903690600401611d25565b60c4929192356001600160401b0381116101a9576107d7903690600401611d25565b6004355f9081526002602052604090206001810154909392906001600160a01b03163303610c225760ff600485015460a01c16600681101561036e57600203610bed5760078401546040516331a9108f60e11b815260048101829052909690936020856024817f00000000000000000000000000000000000000000000000000000000000000006001600160a01b03165afa948515610bc1575f95610bcc575b507f00000000000000000000000000000000000000000000000000000000000000006001600160a01b03163b156101a95761090d5f936108f395604051968795869563155e5bbd60e01b87528d600488015260ff8d1660248801526044356044880152606435606488015260e0608488015260e4870191611fa6565b9160a43560a48601526003198584030160c4860152611fa6565b0381837f00000000000000000000000000000000000000000000000000000000000000006001600160a01b03165af18015610bc157610b91575b5060038201546101f4808202908282041482151715610b7d5761271090049081810392818411610b6957600485015488939291906001600160a01b031680610a6357508380868194829487849214610a59575b6001600160a01b031690f115610725578154829182918291906001600160a01b0316828215610a50575bf115610a455783915b6004908101805460ff60a01b1916600160a21b17905560405191825235907f51e8d4f8aaf9c60ffae4405a481bb91e06484535112745e154a147feb6a3030390602090a360ff604051911681527f1553bacb0d6977b77acd42c9e58585d10da2a7f80c44540ce7a93cde097f011a602060043592a380f35b6040513d86823e3d90fd5b506108fc6109c4565b6108fc915061099a565b60405163a9059cbb60e01b8082526001600160a01b039390931660048201526024810187905296945090929150602090869060449082908c905af1918215610b5e57610aef95602093610b41575b506004848101548a546040519384526001600160a01b03908116928401929092526024830193909352909586929091169082908a9082906044820190565b03925af1928315610b36578593610b07575b506109cd565b610b289060203d602011610b2f575b610b208183611ec5565b810190611fc6565b505f610b01565b503d610b16565b6040513d88823e3d90fd5b610b5790843d8611610b2f57610b208183611ec5565b505f610ab1565b6040513d8a823e3d90fd5b634e487b7160e01b88526011600452602488fd5b634e487b7160e01b87526011600452602487fd5b9094506001600160401b038111610bad576040525f935f610947565b634e487b7160e01b5f52604160045260245ffd5b6040513d5f823e3d90fd5b610be691955060203d602011610503576104f48183611ec5565b935f610877565b60405162461bcd60e51b815260206004820152600d60248201526c139bdd081cdd589b5a5d1d1959609a1b6044820152606490fd5b60405162461bcd60e51b815260206004820152600c60248201526b27b7363c9031b932b0ba37b960a11b6044820152606490fd5b346101a9575f3660031901126101a9575f546040516001600160a01b039091168152602090f35b346101a95760203660031901126101a957610cca60408051610c9e81611eaa565b5f815281518093819263a0aa15a160e01b8352600435600484015260606024840152606483019061200f565b5f604483015203817f00000000000000000000000000000000000000000000000000000000000000006001600160a01b03165afa908115610bc1575f905f92610d2d5750604080516001600160401b0392909216825260ff929092166020820152f35b9050610d48915060403d60401161071e5761070f8183611ec5565b90826106d3565b346101a9575f3660031901126101a957610d6761204b565b5f80546001600160a01b0319811682556001600160a01b03167f8be0079c531659141344cd1fd0a4f28419497f9722a3daafe3b4186f6b6457e08280a3005b60803660031901126101a9576004356001600160401b0381116101a957610dd1903690600401611d25565b60449182356001600160a01b03811681036101a957606491831561124457602435156112015742833511156111cb57600154945f1986146111b757600186810190556001600160a01b03831661114a5760243534106111145750610e4d905b60405194610e3d86611e8e565b8686523360208701523691611f12565b6040840152602435606084015260018060a01b031660808301525f60a08301523560c08201524260e08201525f610100820152604051610e8c81611eaa565b5f8152610120820152815f52600260205260405f2091815183556001830160018060a01b036020840151166bffffffffffffffffffffffff60a01b82541617905560408201519283516001600160401b038111610bad57610efd81610ef46002850154611daa565b60028501611f57565b6020601f82116001146110a9578190610f2e939495965f9261103f575b50508160011b915f199060031b1c19161790565b60028201555b60608301516003820155608083015160048201805460a08601516001600160a01b03909316939190600684101561036e576101209460089460ff60a01b9060a01b16916affffffffffffffffffffff60a81b161717905560c0850151600582015560e08501516006820155610100850151600782015501920151908151926001600160401b038411610bad5783610fd7602095610fd18454611daa565b84611f57565b8493601f821160011461104a5761100692939482915f9261103f5750508160011b915f199060031b1c19161790565b90555b6040516024358152817f1b5e39b039983ddb5862b33842ac157179867c6df1a61f69c50465fd14017f6e843393a3604051908152f35b015190508680610f1a565b601f19821694835f52865f20915f5b87811061109257508360019596971061107a575b505050811b019055611009565b01515f1960f88460031b161c1916905585808061106d565b919288600181928685015181550194019201611059565b600283015f5260205f20905f5b601f19841681106110fc575060019394959683601f198116106110e4575b505050811b016002820155610f34565b01515f1960f88460031b161c191690558580806110d4565b9091602060018192858b0151815501930191016110b6565b83906f092dce6eaccccd2c6d2cadce8408aa8960831b6040519162461bcd60e51b83526020600484015260106024840152820152fd5b6040516323b872dd60e01b81523360048201523060248083019190915235918101919091529060208285815f6001600160a01b0388165af1918215610bc157610e4d92611198575b50610e30565b6111b09060203d602011610b2f57610b208183611ec5565b5086611192565b634e487b7160e01b5f52601160045260245ffd5b60405162461bcd60e51b815260206004820152601060248201526f496e76616c696420646561646c696e6560801b818701528390fd5b60405162461bcd60e51b815260206004820152601760248201527f526577617264206d75737420626520706f736974697665000000000000000000818701528390fd5b60405162461bcd60e51b815260206004820152601460248201527311195cd8dc9a5c1d1a5bdb881c995c5d5a5c995960621b818701528390fd5b346101a95761128c36611d52565b905f52600360205260405f209081548110156101a9576112ab91611d91565b50805461036a60018060a01b036001840154169260056113436040516112d8816102488160028801611de2565b611335604051916112f7836112f08160038a01611de2565b0384611ec5565b6113176004870154966113106040518098819301611de2565b0386611ec5565b6040519889988952602089015260c0604089015260c0880190611ce7565b908682036060880152611ce7565b91608085015283820360a0850152611ce7565b346101a9576020806003193601126101a9576004355f526004815260405f20604051908183825491828152019081925f52845f20905f5b868282106113e25786866113a382880383611ec5565b60405192839281840190828552518091526040840192915f5b8281106113cb57505050500390f35b8351855286955093810193928101926001016113bc565b83548552909301926001928301920161138d565b346101a9575f3660031901126101a95760206040516101f48152f35b346101a9575f3660031901126101a9576040517f00000000000000000000000000000000000000000000000000000000000000006001600160a01b03168152602090f35b346101a95761146436611d52565b905f52600460205260405f2080548210156101a95760209161148591611d68565b90546040519160031b1c8152f35b346101a95760803660031901126101a9576024356001600160401b0381116101a9576114c3903690600401611d25565b6044356001600160401b0381116101a9576114e2903690600401611d25565b916064356001600160401b0381116101a957611502903690600401611d25565b9190946004355f52600260205260405f209260ff600485015460a01c16600681101561036e57600103611ad35760058401544211611a9c5760078401546040516331a9108f60e11b8152600481018290529097906020816024817f00000000000000000000000000000000000000000000000000000000000000006001600160a01b03165afa908115610bc1575f91611a7d575b50336001600160a01b0390911603611a43576004355f52600360205261160160405f20916115dc604051956115ca87611e73565b8b875260208701973389523691611f12565b93604086019485526115ef368b8b611f12565b60608701524260808701523691611f12565b60a08401528054600160401b811015610bad5761162391600182018155611d91565b939093611a305782518455516001840180546001600160a01b0319166001600160a01b0392909216919091179055518051906001600160401b038211610bad5761167d826116746002870154611daa565b60028701611f57565b602090601f83116001146119c2576116ab92915f91836119b75750508160011b915f199060031b1c19161790565b60028301555b60608101518051906001600160401b038211610bad576116e1826116d86003870154611daa565b60038701611f57565b602090601f83116001146119485791806117139260a095945f926118cd5750508160011b915f199060031b1c19161790565b60038401555b6080810151600484015501518051906001600160401b038211610bad57611750826117476005860154611daa565b60058601611f57565b602090601f83116001146118d857826008959493600593611785935f926118cd5750508160011b915f199060031b1c19161790565b9101555b60048101805460ff60a01b1916600160a11b179055016001600160401b038311610bad576117c1836117bb8354611daa565b83611f57565b825f601f821160011461183f5791611814827f26cc09ac8aa3f4df13c6d5f75d4a8e311e091d44209f4415ce38e5894e7b11ee959361182f955f91611834575b508160011b915f199060031b1c19161790565b90555b60405191829160208352600435956020840191611fa6565b0390a3005b905084013589611801565b5f8381526020812092508590601f198216905b8181106118b25750917f26cc09ac8aa3f4df13c6d5f75d4a8e311e091d44209f4415ce38e5894e7b11ee95939161182f959310611899575b5050600185811b019055611817565b8301355f19600388901b60f8161c19169055868061188a565b86840135855560019094019360209384019388935001611852565b015190508a80610f1a565b90600584015f5260205f20915f5b601f1985168110611930575092600592600192600897969583601f19811610611918575b505050811b01910155611789565b01515f1960f88460031b161c1916905589808061190a565b919260206001819286850151815501940192016118e6565b90600385015f5260205f20915f5b601f198516811061199f575091839160019360a09695601f19811610611987575b505050811b016003840155611719565b01515f1960f88460031b161c19169055898080611977565b91926020600181928685015181550194019201611956565b015190508980610f1a565b9190600285015f5260205f20905f935b601f1984168510611a15576001945083601f198116106119fd575b505050811b0160028301556116b1565b01515f1960f88460031b161c191690558880806119ed565b818101518355602094850194600190930192909101906119d2565b634e487b7160e01b5f525f60045260245ffd5b60405162461bcd60e51b8152602060048201526012602482015271139bdd08185cdcda59db9959081859d95b9d60721b6044820152606490fd5b611a96915060203d602011610503576104f48183611ec5565b89611596565b60405162461bcd60e51b815260206004820152600f60248201526e111958591b1a5b99481c185cdcd959608a1b6044820152606490fd5b60405162461bcd60e51b815260206004820152600c60248201526b139bdd08185cdcda59db995960a21b6044820152606490fd5b346101a9576020806003193601126101a9576004355f52600380825260405f2080546001600160401b038111610bad5760405193926005611b4c83821b860187611ec5565b8286528486019182945f52855f20915f935b858510611c1a57604080518981528a51818b018190525f92600582901b83018101918b918d9085015b828710611b945785850386f35b909192938280611c0a600193603f198a82030186528851611bed611bda60c083518552888060a01b03878501511687860152604084015190806040870152850190611ce7565b6060808401519085830390860152611ce7565b916080808301519082015260a08092015191818403910152611ce7565b9601920196019592919092611b87565b60068860019260409b9a9b51611c2f81611e73565b87548152848060a01b03858901541683820152604051611c56816102488160028d01611de2565b6040820152604051611c6e81610248818b8d01611de2565b606082015260048801546080820152604051611c9081610248818a8d01611de2565b60a0820152815201940194019392979697611b5e565b346101a9575f3660031901126101a9577f00000000000000000000000000000000000000000000000000000000000000006001600160a01b03168152602090f35b91908251928382525f5b848110611d11575050825f602080949584010152601f8019910116010190565b602081830181015184830182015201611cf1565b9181601f840112156101a9578235916001600160401b0383116101a957602083818601950101116101a957565b60409060031901126101a9576004359060243590565b8054821015611d7d575f5260205f2001905f90565b634e487b7160e01b5f52603260045260245ffd5b8054821015611d7d575f52600660205f20910201905f90565b90600182811c92168015611dd8575b6020831014611dc457565b634e487b7160e01b5f52602260045260245ffd5b91607f1691611db9565b80545f9392611df082611daa565b918282526020936001916001811690815f14611e545750600114611e16575b5050505050565b90939495505f92919252835f2092845f945b838610611e4057505050500101905f80808080611e0f565b805485870183015294019385908201611e28565b60ff19168685015250505090151560051b010191505f80808080611e0f565b60c081019081106001600160401b03821117610bad57604052565b61014081019081106001600160401b03821117610bad57604052565b602081019081106001600160401b03821117610bad57604052565b90601f801991011681019081106001600160401b03821117610bad57604052565b90600682101561036e5752565b908160209103126101a957516001600160a01b03811681036101a95790565b9291926001600160401b038211610bad5760405191611f3b601f8201601f191660200184611ec5565b8294818452818301116101a9578281602093845f960137010152565b601f8211611f6457505050565b5f5260205f20906020601f840160051c83019310611f9c575b601f0160051c01905b818110611f91575050565b5f8155600101611f86565b9091508190611f7d565b908060209392818452848401375f828201840152601f01601f1916010190565b908160209103126101a9575180151581036101a95790565b91908260409103126101a95781516001600160401b03811681036101a95760209092015160ff811681036101a95790565b9081518082526020808093019301915f5b82811061202e575050505090565b83516001600160a01b031685529381019392810192600101612020565b5f546001600160a01b0316330361205e57565b60405163118cdaa760e01b8152336004820152602490fdfea2646970667358221220e273fcbddfaa588298edea13db2b99677d9f61e87fef28488ac9cace3d10c65c64736f6c63430008180033","linkReferences":{}},"methodIdentifiers":{"PLATFORM_FEE_BPS()":"539aa77f","agentBounties(uint256,uint256)":"4b7061ba","bounties(uint256)":"dc2f8744","claimBounty(uint256,uint256)":"de03fe1d","completeBounty(uint256,uint8,bytes32,bytes32,string,bytes32,bytes)":"c34b091a","createBounty(string,uint256,address,uint256)":"6ceefda3","getAgentBounties(uint256)":"568c499b","getAgentReputation(uint256)":"cb43091f","getAgentValidations(uint256)":"8d5d0c2d","getBounty(uint256)":"ee8c4bbf","getSubmissions(uint256)":"16c53ced","identityRegistry()":"134e18f4","nextBountyId()":"fd14fad4","owner()":"8da5cb5b","renounceOwnership()":"715018a6","reputationRegistry()":"c8db44e3","submissions(uint256,uint256)":"69c1fc25","submitWork(uint256,string,string,bytes)":"23148eb3","transferOwnership(address)":"f2fde38b","validationRegistry()":"4c6b993a"},"id":48}