{"abi":[{"type":"constructor","inputs":[{"name":"_identityRegistry","type":"address","internalType":"address"}],"stateMutability":"nonpayable"},{"type":"function","name":"getAgentValidations","inputs":[{"name":"agentId","type":"uint256","internalType":"uint256"}],"outputs":[{"name":"","type":"bytes32[]","internalType":"bytes32[]"}],"stateMutability":"view"},{"type":"function","name":"getIdentityRegistry","inputs":[],"outputs":[{"name":"","type":"address","internalType":"address"}],"stateMutability":"view"},{"type":"function","name":"getSummary","inputs":[{"name":"agentId","type":"uint256","internalType":"uint256"},{"name":"validatorAddresses","type":"address[]","internalType":"address[]"},{"name":"tag","type":"bytes32","internalType":"bytes32"}],"outputs":[{"name":"count","type":"uint64","internalType":"uint64"},{"name":"avgResponse","type":"uint8","internalType":"uint8"}],"stateMutability":"view"},{"type":"function","name":"getValidationStatus","inputs":[{"name":"requestHash","type":"bytes32","internalType":"bytes32"}],"outputs":[{"name":"validatorAddress","type":"address","internalType":"address"},{"name":"agentId","type":"uint256","internalType":"uint256"},{"name":"response","type":"uint8","internalType":"uint8"},{"name":"responseHash","type":"bytes32","internalType":"bytes32"},{"name":"tag","type":"bytes32","internalType":"bytes32"},{"name":"lastUpdate","type":"uint256","internalType":"uint256"}],"stateMutability":"view"},{"type":"function","name":"getValidatorRequests","inputs":[{"name":"validatorAddress","type":"address","internalType":"address"}],"outputs":[{"name":"","type":"bytes32[]","internalType":"bytes32[]"}],"stateMutability":"view"},{"type":"function","name":"validationRequest","inputs":[{"name":"validatorAddress","type":"address","internalType":"address"},{"name":"agentId","type":"uint256","internalType":"uint256"},{"name":"requestUri","type":"string","internalType":"string"},{"name":"requestHash","type":"bytes32","internalType":"bytes32"}],"outputs":[],"stateMutability":"nonpayable"},{"type":"function","name":"validationResponse","inputs":[{"name":"requestHash","type":"bytes32","internalType":"bytes32"},{"name":"response","type":"uint8","internalType":"uint8"},{"name":"responseUri","type":"string","internalType":"string"},{"name":"responseHash","type":"bytes32","internalType":"bytes32"},{"name":"tag","type":"bytes32","internalType":"bytes32"}],"outputs":[],"stateMutability":"nonpayable"},{"type":"function","name":"validations","inputs":[{"name":"","type":"bytes32","internalType":"bytes32"}],"outputs":[{"name":"validatorAddress","type":"address","internalType":"address"},{"name":"agentId","type":"uint256","internalType":"uint256"},{"name":"response","type":"uint8","internalType":"uint8"},{"name":"responseHash","type":"bytes32","internalType":"bytes32"},{"name":"tag","type":"bytes32","internalType":"bytes32"},{"name":"lastUpdate","type":"uint256","internalType":"uint256"}],"stateMutability":"view"},{"type":"event","name":"ValidationRequest","inputs":[{"name":"validatorAddress","type":"address","indexed":true,"internalType":"address"},{"name":"agentId","type":"uint256","indexed":true,"internalType":"uint256"},{"name":"requestUri","type":"string","indexed":false,"internalType":"string"},{"name":"requestHash","type":"bytes32","indexed":true,"internalType":"bytes32"}],"anonymous":false},{"type":"event","name":"ValidationResponse","inputs":[{"name":"validatorAddress","type":"address","indexed":true,"internalType":"address"},{"name":"agentId","type":"uint256","indexed":true,"internalType":"uint256"},{"name":"requestHash","type":"bytes32","indexed":true,"internalType":"bytes32"},{"name":"response","type":"uint8","indexed":false,"internalType":"uint8"},{"name":"responseUri","type":"string","indexed":false,"internalType":"string"},{"name":"responseHash","type":"bytes32","indexed":false,"internalType":"bytes32"},{"name":"tag","type":"bytes32","indexed":false,"internalType":"bytes32"}],"anonymous":false}],"bytecode":{"object":"0x60a0346100ab57601f610bb638819003918201601f19168301916001600160401b038311848410176100af578084926020946040528339810103126100ab57516001600160a01b0381168082036100ab571561007757608052604051610af290816100c482396080518181816101dd015261027c0152f35b60405162461bcd60e51b815260206004820152600c60248201526b626164206964656e7469747960a01b6044820152606490fd5b5f80fd5b634e487b7160e01b5f52604160045260245ffdfe60806040526004361015610011575f80fd5b5f3560e01c806330e5993a146107dd5780634bf3158c146107675780638d5d0c2d146106f4578063a0aa15a11461050e578063aaf400c41461020c578063bc4d861b146101c8578063e28c38021461014c5763ff2febfc14610071575f80fd5b34610148576020366003190112610148576004355f525f60205260405f206040519061009c82610a08565b61014460018060a01b0392838354168082526001840154936020830194855260ff806002830154169660408501978852600383015494606081019586526100fc60056004860154956080840196875201549560a0830196875215156109b2565b5116955196511692519051915192604051968796879260ff9060a095929897969360c0860199600180891b031686526020860152166040840152606083015260808201520152565b0390f35b5f80fd5b3461014857602036600319011261014857600480355f908152602081815260409182902080546001820154600283015460038401549684015460059094015486516001600160a01b0390941684529483019190915260ff16938101939093526060830193909352608082019290925260a081019190915260c090f35b34610148575f366003190112610148576040517f00000000000000000000000000000000000000000000000000000000000000006001600160a01b03168152602090f35b3461014857608036600319011261014857610225610961565b60249081359060443567ffffffffffffffff81116101485761024b903690600401610933565b606435946001600160a01b03938416939192909184156104da57865f526020925f84528160405f2054166104ae57817f0000000000000000000000000000000000000000000000000000000000000000166040516331a9108f60e11b815288600482015285818481855afa80156104695784915f91610474575b501690858233149283156103f9575b505050156103c557507f530436c3634a98e1e626b0898be2f1e9980cc1bd2a78c07a0aba52d0a48a50599392916103c0916005896040519261031584610a08565b8984528684018b8152604085015f815260608601915f835260808701935f855260a08801954287525f525f8b5260405f209751166bffffffffffffffffffffffff60a01b88541617875551600187015560ff6002870191511660ff1982541617905551600385015551600484015551910155865f526001835261039b8860405f20610a83565b855f52600283526103af8860405f20610a83565b6040519383859485528401916109e8565b0390a4005b83600e6064926040519262461bcd60e51b845260048401528201526d139bdd08185d5d1a1bdc9a5e995960921b6044820152fd5b9091925060446040518094819363e985e9c560e01b8352600483015233878301525afa908115610469575f91610433575b508985816102d4565b90508481813d8311610462575b61044a8183610a38565b8101031261014857518015158103610148578961042a565b503d610440565b6040513d5f823e3d90fd5b809250878092503d83116104a7575b61048d8183610a38565b81010312610148575183811681036101485783908b6102c5565b503d610483565b8360066064926040519262461bcd60e51b845260048401528201526565786973747360d01b6044820152fd5b60405162461bcd60e51b815260206004820152600d818501526c3130b2103b30b634b230ba37b960991b6044820152606490fd5b346101485760603660031901126101485767ffffffffffffffff60243511610148573660236024350112156101485767ffffffffffffffff60243560040135116101485736602480356004013560051b8135010111610148575f806004355f52600160205260405f205f908054915b8281106105d3578467ffffffffffffffff85168015806105c6576105b25760ff808260409404165b8351928352166020820152f35b634e487b7160e01b5f52601260045260245ffd5b506040915060ff5f6105a5565b6105dd8183610a5a565b90549060031b1c5f525f60205260405f20602435600401351560243560040135610699575b6044351560443561068a575b81610682575b508061067a575b610629575b5060010161057d565b600260ff91969295960154168101809111610666579367ffffffffffffffff8082161461066657600167ffffffffffffffff819216019390610620565b634e487b7160e01b5f52601160045260245ffd5b50600161061b565b905087610614565b5060443560048301541461060e565b81546001600160a01b03165f5b6024356004013581106106bb575b5050610602565b6001600160a01b0360248035600584901b010135908116908190036101485782146106e8576001016106a6565b505050600187806106b4565b3461014857602080600319360112610148576004355f5260018060205260405f20916040519182602085549182815201945f5260205f20925f905b8282106107525761014486610746818a0382610a38565b60405191829182610977565b8454875295860195938301939083019061072f565b3461014857602080600319360112610148576001600160a01b03610789610961565b165f52600260205260405f20906040519081602084549182815201935f5260205f20915f905b8282106107c6576101448561074681890382610a38565b8354865294850194600193840193909101906107af565b346101485760a03660031901126101485760043560243560ff81168091036101485760443567ffffffffffffffff81116101485761081f903690600401610933565b6064929192359060843592855f525f60205260405f209260018060a01b038454169461084c8615156109b2565b8533036108fe57606483116108ce576108be60018660027ff224d3d5ad74301be48e4d51ca5f1b24c7946875887327585becc59165297dcf98018660ff1982541617905584600382015583600482015542600582015501549760405195869586526080602087015260808601916109e8565b91604084015260608301520390a4005b60405162461bcd60e51b81526020600482015260086024820152670726573703e3130360c41b6044820152606490fd5b60405162461bcd60e51b815260206004820152600d60248201526c3737ba103b30b634b230ba37b960991b6044820152606490fd5b9181601f840112156101485782359167ffffffffffffffff8311610148576020838186019501011161014857565b600435906001600160a01b038216820361014857565b60209060206040818301928281528551809452019301915f5b82811061099e575050505090565b835185529381019392810192600101610990565b156109b957565b60405162461bcd60e51b81526020600482015260076024820152663ab735b737bbb760c91b6044820152606490fd5b908060209392818452848401375f828201840152601f01601f1916010190565b60c0810190811067ffffffffffffffff821117610a2457604052565b634e487b7160e01b5f52604160045260245ffd5b90601f8019910116810190811067ffffffffffffffff821117610a2457604052565b8054821015610a6f575f5260205f2001905f90565b634e487b7160e01b5f52603260045260245ffd5b805468010000000000000000811015610a2457610aa591600182018155610a5a565b819291549060031b91821b915f19901b191617905556fea2646970667358221220f1ea7926df9d21ad90c359fdf6daa98d521d88476da42af4bed3a98ea4669b5f64736f6c63430008180033","linkReferences":{}},"methodIdentifiers":{"getAgentValidations(uint256)":"8d5d0c2d","getIdentityRegistry()":"bc4d861b","getSummary(uint256,address[],bytes32)":"a0aa15a1","getValidationStatus(bytes32)":"ff2febfc","getValidatorRequests(address)":"4bf3158c","validationRequest(address,uint256,string,bytes32)":"aaf400c4","validationResponse(bytes32,uint8,string,bytes32,bytes32)":"30e5993a","validations(bytes32)":"e28c3802"},"id":2}